{"contracts/ECCUtils.sol":{"ECCUtils":{"abi":[{"inputs":[{"internalType":"uint256","name":"x1","type":"uint256"},{"internalType":"uint256","name":"y1","type":"uint256"},{"internalType":"uint256","name":"z1","type":"uint256"},{"internalType":"uint256","name":"x2","type":"uint256"},{"internalType":"uint256","name":"y2","type":"uint256"},{"internalType":"uint256","name":"z2","type":"uint256"}],"name":"_ecAdd","outputs":[{"internalType":"uint256","name":"x3","type":"uint256"},{"internalType":"uint256","name":"y3","type":"uint256"},{"internalType":"uint256","name":"z3","type":"uint256"}],"stateMutability":"pure","type":"function"},{"inputs":[{"internalType":"uint256","name":"x1","type":"uint256"},{"internalType":"uint256","name":"y1","type":"uint256"},{"internalType":"uint256","name":"z1","type":"uint256"}],"name":"_ecDouble","outputs":[{"internalType":"uint256","name":"x3","type":"uint256"},{"internalType":"uint256","name":"y3","type":"uint256"},{"internalType":"uint256","name":"z3","type":"uint256"}],"stateMutability":"pure","type":"function"},{"inputs":[{"internalType":"uint256","name":"d","type":"uint256"},{"internalType":"uint256","name":"x1","type":"uint256"},{"internalType":"uint256","name":"y1","type":"uint256"},{"internalType":"uint256","name":"z1","type":"uint256"}],"name":"_ecMul","outputs":[{"internalType":"uint256","name":"x3","type":"uint256"},{"internalType":"uint256","name":"y3","type":"uint256"},{"internalType":"uint256","name":"z3","type":"uint256"}],"stateMutability":"pure","type":"function"},{"inputs":[{"internalType":"uint256","name":"val","type":"uint256"}],"name":"_inverse","outputs":[{"internalType":"uint256","name":"invVal","type":"uint256"}],"stateMutability":"pure","type":"function"},{"inputs":[{"internalType":"uint256","name":"x1","type":"uint256"},{"internalType":"uint256","name":"z1","type":"uint256"},{"internalType":"uint256","name":"x2","type":"uint256"},{"internalType":"uint256","name":"z2","type":"uint256"}],"name":"_jAdd","outputs":[{"internalType":"uint256","name":"x3","type":"uint256"},{"internalType":"uint256","name":"z3","type":"uint256"}],"stateMutability":"pure","type":"function"},{"inputs":[{"internalType":"uint256","name":"x1","type":"uint256"},{"internalType":"uint256","name":"z1","type":"uint256"},{"internalType":"uint256","name":"x2","type":"uint256"},{"internalType":"uint256","name":"z2","type":"uint256"}],"name":"_jDiv","outputs":[{"internalType":"uint256","name":"x3","type":"uint256"},{"internalType":"uint256","name":"z3","type":"uint256"}],"stateMutability":"pure","type":"function"},{"inputs":[{"internalType":"uint256","name":"x1","type":"uint256"},{"internalType":"uint256","name":"z1","type":"uint256"},{"internalType":"uint256","name":"x2","type":"uint256"},{"internalType":"uint256","name":"z2","type":"uint256"}],"name":"_jMul","outputs":[{"internalType":"uint256","name":"x3","type":"uint256"},{"internalType":"uint256","name":"z3","type":"uint256"}],"stateMutability":"pure","type":"function"},{"inputs":[{"internalType":"uint256","name":"x1","type":"uint256"},{"internalType":"uint256","name":"z1","type":"uint256"},{"internalType":"uint256","name":"x2","type":"uint256"},{"internalType":"uint256","name":"z2","type":"uint256"}],"name":"_jSub","outputs":[{"internalType":"uint256","name":"x3","type":"uint256"},{"internalType":"uint256","name":"z3","type":"uint256"}],"stateMutability":"pure","type":"function"},{"inputs":[],"name":"a","outputs":[{"internalType":"uint256","name":"","type":"uint256"}],"stateMutability":"view","type":"function"},{"inputs":[],"name":"b","outputs":[{"internalType":"uint256","name":"","type":"uint256"}],"stateMutability":"view","type":"function"},{"inputs":[{"internalType":"uint256","name":"privKey","type":"uint256"},{"internalType":"uint256","name":"pubX","type":"uint256"},{"internalType":"uint256","name":"pubY","type":"uint256"}],"name":"deriveKey","outputs":[{"internalType":"uint256","name":"qx","type":"uint256"},{"internalType":"uint256","name":"qy","type":"uint256"}],"stateMutability":"pure","type":"function"},{"inputs":[{"internalType":"uint256","name":"x1","type":"uint256"},{"internalType":"uint256","name":"y1","type":"uint256"},{"internalType":"uint256","name":"x2","type":"uint256"},{"internalType":"uint256","name":"y2","type":"uint256"}],"name":"ecadd","outputs":[{"internalType":"uint256","name":"x3","type":"uint256"},{"internalType":"uint256","name":"y3","type":"uint256"}],"stateMutability":"pure","type":"function"},{"inputs":[{"internalType":"uint256","name":"x1","type":"uint256"},{"internalType":"uint256","name":"y1","type":"uint256"},{"internalType":"uint256","name":"scalar","type":"uint256"}],"name":"ecmul","outputs":[{"internalType":"uint256","name":"x2","type":"uint256"},{"internalType":"uint256","name":"y2","type":"uint256"}],"stateMutability":"pure","type":"function"},{"inputs":[{"internalType":"uint256","name":"x1","type":"uint256"},{"internalType":"uint256","name":"y1","type":"uint256"},{"internalType":"uint256","name":"scalar","type":"uint256"},{"internalType":"uint256","name":"qx","type":"uint256"},{"internalType":"uint256","name":"qy","type":"uint256"}],"name":"ecmulVerify","outputs":[{"internalType":"bool","name":"","type":"bool"}],"stateMutability":"pure","type":"function"},{"inputs":[],"name":"gx","outputs":[{"internalType":"uint256","name":"","type":"uint256"}],"stateMutability":"view","type":"function"},{"inputs":[],"name":"gy","outputs":[{"internalType":"uint256","name":"","type":"uint256"}],"stateMutability":"view","type":"function"},{"inputs":[],"name":"n","outputs":[{"internalType":"uint256","name":"","type":"uint256"}],"stateMutability":"view","type":"function"},{"inputs":[{"internalType":"uint256","name":"privKey","type":"uint256"}],"name":"publicKey","outputs":[{"internalType":"uint256","name":"qx","type":"uint256"},{"internalType":"uint256","name":"qy","type":"uint256"}],"stateMutability":"pure","type":"function"},{"inputs":[{"internalType":"uint256","name":"privKey","type":"uint256"},{"internalType":"uint256","name":"x","type":"uint256"},{"internalType":"uint256","name":"y","type":"uint256"}],"name":"publicKeyVerify","outputs":[{"internalType":"bool","name":"","type":"bool"}],"stateMutability":"pure","type":"function"}],"evm":{"bytecode":{"linkReferences":{},"object":"611503610053600b82828239805160001a607314610046577f4e487b7100000000000000000000000000000000000000000000000000000000600052600060045260246000fd5b30600052607381538281f3fe730000000000000000000000000000000000000000301460806040526004361061012b5760003560e01c80635f972df8116100b7578063913f424c1161007b578063913f424c1461037c578063bb8c256a146103ae578063db318833146103df578063e241c1d914610411578063f47289e1146104425761012b565b80635f972df81461028957806366ce10b7146102ba5780638081a1e7146102ea5780638940aebe1461031b5780638cecf66e1461034c5761012b565b80631ecfe64d116100fe5780631ecfe64d146101cd5780632d58c9a2146101fe5780632e52d6061461021c5780634df7e3d01461023a5780635b764811146102585761012b565b80630138e31b14610130578063022079d91461016157806306c91ce3146101915780630dbe671f146101af575b600080fd5b61014a60048036038101906101459190610fd9565b610474565b60405161015892919061104f565b60405180910390f35b61017b60048036038101906101769190611078565b61054e565b604051610188919061110e565b60405180910390f35b61019961067e565b6040516101a69190611129565b60405180910390f35b6101b76106a2565b6040516101c49190611129565b60405180910390f35b6101e760048036038101906101e29190610fd9565b6106a7565b6040516101f592919061104f565b60405180910390f35b6102066107ac565b6040516102139190611129565b60405180910390f35b6102246107d0565b6040516102319190611129565b60405180910390f35b6102426107f4565b60405161024f9190611129565b60405180910390f35b610272600480360381019061026d9190610fd9565b6107f9565b60405161028092919061104f565b60405180910390f35b6102a3600480360381019061029e9190610fd9565b610871565b6040516102b192919061104f565b60405180910390f35b6102d460048036038101906102cf9190611144565b6108e9565b6040516102e1919061110e565b60405180910390f35b61030460048036038101906102ff9190611144565b610941565b60405161031292919061104f565b60405180910390f35b61033560048036038101906103309190611197565b6109db565b60405161034392919061104f565b60405180910390f35b61036660048036038101906103619190611197565b610a32565b6040516103739190611129565b60405180910390f35b61039660048036038101906103919190610fd9565b610b4b565b6040516103a5939291906111c4565b60405180910390f35b6103c860048036038101906103c39190610fd9565b610c06565b6040516103d692919061104f565b60405180910390f35b6103f960048036038101906103f491906111fb565b610ca4565b604051610408939291906111c4565b60405180910390f35b61042b60048036038101906104269190611144565b610edc565b60405161043992919061104f565b60405180910390f35b61045c60048036038101906104579190611144565b610f76565b60405161046b939291906111c4565b60405180910390f35b6000807ffffffffffffffffffffffffffffffffffffffffffffffffffffffffefffffc2f806104a6576104a5611288565b5b7ffffffffffffffffffffffffffffffffffffffffffffffffffffffffefffffc2f806104d5576104d4611288565b5b8686097ffffffffffffffffffffffffffffffffffffffffffffffffffffffffefffffc2f8061050757610506611288565b5b888609087ffffffffffffffffffffffffffffffffffffffffffffffffffffffffefffffc2f8061053a57610539611288565b5b848709809250819350505094509492505050565b6000807ffffffffffffffffffffffffffffffffebaaedce6af48a03bbfd25e8cd036414190506000600160008060028a61058891906112b7565b0361059457601b610597565b601c5b8a60001b85806105aa576105a9611288565b5b8c8b0960001b604051600081526020016040526040516105cd9493929190611365565b6020604051602081039080840390855afa1580156105ef573d6000803e3d6000fd5b505050602060405103519050600073ffffffffffffffffffffffffffffffffffffffff86866040516020016106259291906113cb565b6040516020818303038152906040528051906020012060001c1690508173ffffffffffffffffffffffffffffffffffffffff168173ffffffffffffffffffffffffffffffffffffffff1614935050505095945050505050565b7f79be667ef9dcbbac55a06295ce870b07029bfcdb2dce28d959f2815b16f8179881565b600081565b6000807ffffffffffffffffffffffffffffffffffffffffffffffffffffffffefffffc2f806106d9576106d8611288565b5b7ffffffffffffffffffffffffffffffffffffffffffffffffffffffffefffffc2f8061070857610707611288565b5b86867ffffffffffffffffffffffffffffffffffffffffffffffffffffffffefffffc2f6107359190611426565b097ffffffffffffffffffffffffffffffffffffffffffffffffffffffffefffffc2f8061076557610764611288565b5b888609087ffffffffffffffffffffffffffffffffffffffffffffffffffffffffefffffc2f8061079857610797611288565b5b848709809250819350505094509492505050565b7f483ada7726a3c4655da4fbfc0e1108a8fd17b448a68554199c47d08ffb10d4b881565b7ffffffffffffffffffffffffffffffffffffffffffffffffffffffffefffffc2f81565b600781565b6000807ffffffffffffffffffffffffffffffffffffffffffffffffffffffffefffffc2f8061082b5761082a611288565b5b8487097ffffffffffffffffffffffffffffffffffffffffffffffffffffffffefffffc2f8061085d5761085c611288565b5b848709809250819350505094509492505050565b6000807ffffffffffffffffffffffffffffffffffffffffffffffffffffffffefffffc2f806108a3576108a2611288565b5b8387097ffffffffffffffffffffffffffffffffffffffffffffffffffffffffefffffc2f806108d5576108d4611288565b5b858709809250819350505094509492505050565b60006109387f79be667ef9dcbbac55a06295ce870b07029bfcdb2dce28d959f2815b16f817987f483ada7726a3c4655da4fbfc0e1108a8fd17b448a68554199c47d08ffb10d4b886868661054e565b90509392505050565b60008060006109538487876001610b4b565b80935081945082955050505061096881610a32565b90507ffffffffffffffffffffffffffffffffffffffffffffffffffffffffefffffc2f8061099957610998611288565b5b81840992507ffffffffffffffffffffffffffffffffffffffffffffffffffffffffefffffc2f806109cd576109cc611288565b5b818309915050935093915050565b600080610a297f79be667ef9dcbbac55a06295ce870b07029bfcdb2dce28d959f2815b16f817987f483ada7726a3c4655da4fbfc0e1108a8fd17b448a68554199c47d08ffb10d4b885610941565b91509150915091565b6000806000905060006001905060007ffffffffffffffffffffffffffffffffffffffffffffffffffffffffefffffc2f9050600085905060005b60008214610b3e578183610a80919061145a565b9050837ffffffffffffffffffffffffffffffffffffffffffffffffffffffffefffffc2f80610ab257610ab1611288565b5b7ffffffffffffffffffffffffffffffffffffffffffffffffffffffffefffffc2f80610ae157610ae0611288565b5b8684097ffffffffffffffffffffffffffffffffffffffffffffffffffffffffefffffc2f610b0f9190611426565b87088095508196505050818282610b26919061148b565b84610b319190611426565b8093508194505050610a6c565b8495505050505050919050565b60008060008087905060008790506000879050600087905060008060006001905060008e03610b8b57600080600199509950995050505050505050610bfc565b5b60008714610be55760006001881614610bba57610bad838383898989610ca4565b8093508194508295505050505b600287610bc7919061145a565b9650610bd4868686610f76565b809650819750829850505050610b8c565b828282809a50819b50829c50505050505050505050505b9450945094915050565b6000806000610c1b8787600188886001610ca4565b809350819450829550505050610c3081610a32565b90507ffffffffffffffffffffffffffffffffffffffffffffffffffffffffefffffc2f80610c6157610c60611288565b5b81840992507ffffffffffffffffffffffffffffffffffffffffffffffffffffffffefffffc2f80610c9557610c94611288565b5b81830991505094509492505050565b6000806000806000806000808d148015610cbe575060008c145b15610cd55789898996509650965050505050610ed0565b60008a148015610ce55750600089145b15610cfc578c8c8c96509650965050505050610ed0565b898d148015610d0a5750888c145b15610d6a57610d1b8d8c8f8e6107f9565b8094508195505050610d318484600360016107f9565b8094508195505050610d47848460006001610474565b8094508195505050610d5d8c8c600260016107f9565b8092508193505050610d93565b610d7689898e8e6106a7565b8094508195505050610d8a8a898f8e6106a7565b80925081935050505b610d9f84848484610871565b8094508195505050610db3848486866107f9565b8093508198505050610dc787838f8e6106a7565b8093508198505050610ddb87838c8b6106a7565b8093508198505050610def8d8c89856106a7565b8092508197505050610e03868286866107f9565b8092508197505050610e1786828e8e6106a7565b8092508197505050808214610ec7577ffffffffffffffffffffffffffffffffffffffffffffffffffffffffefffffc2f80610e5557610e54611288565b5b81880996507ffffffffffffffffffffffffffffffffffffffffffffffffffffffffefffffc2f80610e8957610e88611288565b5b82870995507ffffffffffffffffffffffffffffffffffffffffffffffffffffffffefffffc2f80610ebd57610ebc611288565b5b8183099450610ecb565b8194505b505050505b96509650969350505050565b6000806000610eee8686866001610b4b565b809350819450829550505050610f0381610a32565b90507ffffffffffffffffffffffffffffffffffffffffffffffffffffffffefffffc2f80610f3457610f33611288565b5b81840992507ffffffffffffffffffffffffffffffffffffffffffffffffffffffffefffffc2f80610f6857610f67611288565b5b818309915050935093915050565b6000806000610f89868686898989610ca4565b80935081945082955050505093509350939050565b600080fd5b6000819050919050565b610fb681610fa3565b8114610fc157600080fd5b50565b600081359050610fd381610fad565b92915050565b60008060008060808587031215610ff357610ff2610f9e565b5b600061100187828801610fc4565b945050602061101287828801610fc4565b935050604061102387828801610fc4565b925050606061103487828801610fc4565b91505092959194509250565b61104981610fa3565b82525050565b60006040820190506110646000830185611040565b6110716020830184611040565b9392505050565b600080600080600060a0868803121561109457611093610f9e565b5b60006110a288828901610fc4565b95505060206110b388828901610fc4565b94505060406110c488828901610fc4565b93505060606110d588828901610fc4565b92505060806110e688828901610fc4565b9150509295509295909350565b60008115159050919050565b611108816110f3565b82525050565b600060208201905061112360008301846110ff565b92915050565b600060208201905061113e6000830184611040565b92915050565b60008060006060848603121561115d5761115c610f9e565b5b600061116b86828701610fc4565b935050602061117c86828701610fc4565b925050604061118d86828701610fc4565b9150509250925092565b6000602082840312156111ad576111ac610f9e565b5b60006111bb84828501610fc4565b91505092915050565b60006060820190506111d96000830186611040565b6111e66020830185611040565b6111f36040830184611040565b949350505050565b60008060008060008060c0878903121561121857611217610f9e565b5b600061122689828a01610fc4565b965050602061123789828a01610fc4565b955050604061124889828a01610fc4565b945050606061125989828a01610fc4565b935050608061126a89828a01610fc4565b92505060a061127b89828a01610fc4565b9150509295509295509295565b7f4e487b7100000000000000000000000000000000000000000000000000000000600052601260045260246000fd5b60006112c282610fa3565b91506112cd83610fa3565b9250826112dd576112dc611288565b5b828206905092915050565b6000819050919050565b6000819050919050565b60008160001b9050919050565b600061132461131f61131a846112e8565b6112fc565b6112f2565b9050919050565b61133481611309565b82525050565b600060ff82169050919050565b6113508161133a565b82525050565b61135f816112f2565b82525050565b600060808201905061137a600083018761132b565b6113876020830186611347565b6113946040830185611356565b6113a16060830184611356565b95945050505050565b6000819050919050565b6113c56113c082610fa3565b6113aa565b82525050565b60006113d782856113b4565b6020820191506113e782846113b4565b6020820191508190509392505050565b7f4e487b7100000000000000000000000000000000000000000000000000000000600052601160045260246000fd5b600061143182610fa3565b915061143c83610fa3565b9250828203905081811115611454576114536113f7565b5b92915050565b600061146582610fa3565b915061147083610fa3565b9250826114805761147f611288565b5b828204905092915050565b600061149682610fa3565b91506114a183610fa3565b92508282026114af81610fa3565b915082820484148315176114c6576114c56113f7565b5b509291505056fea26469706673582212200bf47744cf1d52ca84bdfb53a7d71279d5805409445d78c2f4d4a4b583746eb664736f6c63430008120033","opcodes":"PUSH2 0x1503 PUSH2 0x53 PUSH1 0xB DUP3 DUP3 DUP3 CODECOPY DUP1 MLOAD PUSH1 0x0 BYTE PUSH1 0x73 EQ PUSH2 0x46 JUMPI PUSH32 0x4E487B7100000000000000000000000000000000000000000000000000000000 PUSH1 0x0 MSTORE PUSH1 0x0 PUSH1 0x4 MSTORE PUSH1 0x24 PUSH1 0x0 REVERT JUMPDEST ADDRESS PUSH1 0x0 MSTORE PUSH1 0x73 DUP2 MSTORE8 DUP3 DUP2 RETURN INVALID PUSH20 0x0 ADDRESS EQ PUSH1 0x80 PUSH1 0x40 MSTORE PUSH1 0x4 CALLDATASIZE LT PUSH2 0x12B JUMPI PUSH1 0x0 CALLDATALOAD PUSH1 0xE0 SHR DUP1 PUSH4 0x5F972DF8 GT PUSH2 0xB7 JUMPI DUP1 PUSH4 0x913F424C GT PUSH2 0x7B JUMPI DUP1 PUSH4 0x913F424C EQ PUSH2 0x37C JUMPI DUP1 PUSH4 0xBB8C256A EQ PUSH2 0x3AE JUMPI DUP1 PUSH4 0xDB318833 EQ PUSH2 0x3DF JUMPI DUP1 PUSH4 0xE241C1D9 EQ PUSH2 0x411 JUMPI DUP1 PUSH4 0xF47289E1 EQ PUSH2 0x442 JUMPI PUSH2 0x12B JUMP JUMPDEST DUP1 PUSH4 0x5F972DF8 EQ PUSH2 0x289 JUMPI DUP1 PUSH4 0x66CE10B7 EQ PUSH2 0x2BA JUMPI DUP1 PUSH4 0x8081A1E7 EQ PUSH2 0x2EA JUMPI DUP1 PUSH4 0x8940AEBE EQ PUSH2 0x31B JUMPI DUP1 PUSH4 0x8CECF66E EQ PUSH2 0x34C JUMPI PUSH2 0x12B JUMP JUMPDEST DUP1 PUSH4 0x1ECFE64D GT PUSH2 0xFE JUMPI DUP1 PUSH4 0x1ECFE64D EQ PUSH2 0x1CD JUMPI DUP1 PUSH4 0x2D58C9A2 EQ PUSH2 0x1FE JUMPI DUP1 PUSH4 0x2E52D606 EQ PUSH2 0x21C JUMPI DUP1 PUSH4 0x4DF7E3D0 EQ PUSH2 0x23A JUMPI DUP1 PUSH4 0x5B764811 EQ PUSH2 0x258 JUMPI PUSH2 0x12B JUMP JUMPDEST DUP1 PUSH4 0x138E31B EQ PUSH2 0x130 JUMPI DUP1 PUSH4 0x22079D9 EQ PUSH2 0x161 JUMPI DUP1 PUSH4 0x6C91CE3 EQ PUSH2 0x191 JUMPI DUP1 PUSH4 0xDBE671F EQ PUSH2 0x1AF JUMPI JUMPDEST PUSH1 0x0 DUP1 REVERT JUMPDEST PUSH2 0x14A PUSH1 0x4 DUP1 CALLDATASIZE SUB DUP2 ADD SWAP1 PUSH2 0x145 SWAP2 SWAP1 PUSH2 0xFD9 JUMP JUMPDEST PUSH2 0x474 JUMP JUMPDEST PUSH1 0x40 MLOAD PUSH2 0x158 SWAP3 SWAP2 SWAP1 PUSH2 0x104F JUMP JUMPDEST PUSH1 0x40 MLOAD DUP1 SWAP2 SUB SWAP1 RETURN JUMPDEST PUSH2 0x17B PUSH1 0x4 DUP1 CALLDATASIZE SUB DUP2 ADD SWAP1 PUSH2 0x176 SWAP2 SWAP1 PUSH2 0x1078 JUMP JUMPDEST PUSH2 0x54E JUMP JUMPDEST PUSH1 0x40 MLOAD PUSH2 0x188 SWAP2 SWAP1 PUSH2 0x110E JUMP JUMPDEST PUSH1 0x40 MLOAD DUP1 SWAP2 SUB SWAP1 RETURN JUMPDEST PUSH2 0x199 PUSH2 0x67E JUMP JUMPDEST PUSH1 0x40 MLOAD PUSH2 0x1A6 SWAP2 SWAP1 PUSH2 0x1129 JUMP JUMPDEST PUSH1 0x40 MLOAD DUP1 SWAP2 SUB SWAP1 RETURN JUMPDEST PUSH2 0x1B7 PUSH2 0x6A2 JUMP JUMPDEST PUSH1 0x40 MLOAD PUSH2 0x1C4 SWAP2 SWAP1 PUSH2 0x1129 JUMP JUMPDEST PUSH1 0x40 MLOAD DUP1 SWAP2 SUB SWAP1 RETURN JUMPDEST PUSH2 0x1E7 PUSH1 0x4 DUP1 CALLDATASIZE SUB DUP2 ADD SWAP1 PUSH2 0x1E2 SWAP2 SWAP1 PUSH2 0xFD9 JUMP JUMPDEST PUSH2 0x6A7 JUMP JUMPDEST PUSH1 0x40 MLOAD PUSH2 0x1F5 SWAP3 SWAP2 SWAP1 PUSH2 0x104F JUMP JUMPDEST PUSH1 0x40 MLOAD DUP1 SWAP2 SUB SWAP1 RETURN JUMPDEST PUSH2 0x206 PUSH2 0x7AC JUMP JUMPDEST PUSH1 0x40 MLOAD PUSH2 0x213 SWAP2 SWAP1 PUSH2 0x1129 JUMP JUMPDEST PUSH1 0x40 MLOAD DUP1 SWAP2 SUB SWAP1 RETURN JUMPDEST PUSH2 0x224 PUSH2 0x7D0 JUMP JUMPDEST PUSH1 0x40 MLOAD PUSH2 0x231 SWAP2 SWAP1 PUSH2 0x1129 JUMP JUMPDEST PUSH1 0x40 MLOAD DUP1 SWAP2 SUB SWAP1 RETURN JUMPDEST PUSH2 0x242 PUSH2 0x7F4 JUMP JUMPDEST PUSH1 0x40 MLOAD PUSH2 0x24F SWAP2 SWAP1 PUSH2 0x1129 JUMP JUMPDEST PUSH1 0x40 MLOAD DUP1 SWAP2 SUB SWAP1 RETURN JUMPDEST PUSH2 0x272 PUSH1 0x4 DUP1 CALLDATASIZE SUB DUP2 ADD SWAP1 PUSH2 0x26D SWAP2 SWAP1 PUSH2 0xFD9 JUMP JUMPDEST PUSH2 0x7F9 JUMP JUMPDEST PUSH1 0x40 MLOAD PUSH2 0x280 SWAP3 SWAP2 SWAP1 PUSH2 0x104F JUMP JUMPDEST PUSH1 0x40 MLOAD DUP1 SWAP2 SUB SWAP1 RETURN JUMPDEST PUSH2 0x2A3 PUSH1 0x4 DUP1 CALLDATASIZE SUB DUP2 ADD SWAP1 PUSH2 0x29E SWAP2 SWAP1 PUSH2 0xFD9 JUMP JUMPDEST PUSH2 0x871 JUMP JUMPDEST PUSH1 0x40 MLOAD PUSH2 0x2B1 SWAP3 SWAP2 SWAP1 PUSH2 0x104F JUMP JUMPDEST PUSH1 0x40 MLOAD DUP1 SWAP2 SUB SWAP1 RETURN JUMPDEST PUSH2 0x2D4 PUSH1 0x4 DUP1 CALLDATASIZE SUB DUP2 ADD SWAP1 PUSH2 0x2CF SWAP2 SWAP1 PUSH2 0x1144 JUMP JUMPDEST PUSH2 0x8E9 JUMP JUMPDEST PUSH1 0x40 MLOAD PUSH2 0x2E1 SWAP2 SWAP1 PUSH2 0x110E JUMP JUMPDEST PUSH1 0x40 MLOAD DUP1 SWAP2 SUB SWAP1 RETURN JUMPDEST PUSH2 0x304 PUSH1 0x4 DUP1 CALLDATASIZE SUB DUP2 ADD SWAP1 PUSH2 0x2FF SWAP2 SWAP1 PUSH2 0x1144 JUMP JUMPDEST PUSH2 0x941 JUMP JUMPDEST PUSH1 0x40 MLOAD PUSH2 0x312 SWAP3 SWAP2 SWAP1 PUSH2 0x104F JUMP JUMPDEST PUSH1 0x40 MLOAD DUP1 SWAP2 SUB SWAP1 RETURN JUMPDEST PUSH2 0x335 PUSH1 0x4 DUP1 CALLDATASIZE SUB DUP2 ADD SWAP1 PUSH2 0x330 SWAP2 SWAP1 PUSH2 0x1197 JUMP JUMPDEST PUSH2 0x9DB JUMP JUMPDEST PUSH1 0x40 MLOAD PUSH2 0x343 SWAP3 SWAP2 SWAP1 PUSH2 0x104F JUMP JUMPDEST PUSH1 0x40 MLOAD DUP1 SWAP2 SUB SWAP1 RETURN JUMPDEST PUSH2 0x366 PUSH1 0x4 DUP1 CALLDATASIZE SUB DUP2 ADD SWAP1 PUSH2 0x361 SWAP2 SWAP1 PUSH2 0x1197 JUMP JUMPDEST PUSH2 0xA32 JUMP JUMPDEST PUSH1 0x40 MLOAD PUSH2 0x373 SWAP2 SWAP1 PUSH2 0x1129 JUMP JUMPDEST PUSH1 0x40 MLOAD DUP1 SWAP2 SUB SWAP1 RETURN JUMPDEST PUSH2 0x396 PUSH1 0x4 DUP1 CALLDATASIZE SUB DUP2 ADD SWAP1 PUSH2 0x391 SWAP2 SWAP1 PUSH2 0xFD9 JUMP JUMPDEST PUSH2 0xB4B JUMP JUMPDEST PUSH1 0x40 MLOAD PUSH2 0x3A5 SWAP4 SWAP3 SWAP2 SWAP1 PUSH2 0x11C4 JUMP JUMPDEST PUSH1 0x40 MLOAD DUP1 SWAP2 SUB SWAP1 RETURN JUMPDEST PUSH2 0x3C8 PUSH1 0x4 DUP1 CALLDATASIZE SUB DUP2 ADD SWAP1 PUSH2 0x3C3 SWAP2 SWAP1 PUSH2 0xFD9 JUMP JUMPDEST PUSH2 0xC06 JUMP JUMPDEST PUSH1 0x40 MLOAD PUSH2 0x3D6 SWAP3 SWAP2 SWAP1 PUSH2 0x104F JUMP JUMPDEST PUSH1 0x40 MLOAD DUP1 SWAP2 SUB SWAP1 RETURN JUMPDEST PUSH2 0x3F9 PUSH1 0x4 DUP1 CALLDATASIZE SUB DUP2 ADD SWAP1 PUSH2 0x3F4 SWAP2 SWAP1 PUSH2 0x11FB JUMP JUMPDEST PUSH2 0xCA4 JUMP JUMPDEST PUSH1 0x40 MLOAD PUSH2 0x408 SWAP4 SWAP3 SWAP2 SWAP1 PUSH2 0x11C4 JUMP JUMPDEST PUSH1 0x40 MLOAD DUP1 SWAP2 SUB SWAP1 RETURN JUMPDEST PUSH2 0x42B PUSH1 0x4 DUP1 CALLDATASIZE SUB DUP2 ADD SWAP1 PUSH2 0x426 SWAP2 SWAP1 PUSH2 0x1144 JUMP JUMPDEST PUSH2 0xEDC JUMP JUMPDEST PUSH1 0x40 MLOAD PUSH2 0x439 SWAP3 SWAP2 SWAP1 PUSH2 0x104F JUMP JUMPDEST PUSH1 0x40 MLOAD DUP1 SWAP2 SUB SWAP1 RETURN JUMPDEST PUSH2 0x45C PUSH1 0x4 DUP1 CALLDATASIZE SUB DUP2 ADD SWAP1 PUSH2 0x457 SWAP2 SWAP1 PUSH2 0x1144 JUMP JUMPDEST PUSH2 0xF76 JUMP JUMPDEST PUSH1 0x40 MLOAD PUSH2 0x46B SWAP4 SWAP3 SWAP2 SWAP1 PUSH2 0x11C4 JUMP JUMPDEST PUSH1 0x40 MLOAD DUP1 SWAP2 SUB SWAP1 RETURN JUMPDEST PUSH1 0x0 DUP1 PUSH32 0xFFFFFFFFFFFFFFFFFFFFFFFFFFFFFFFFFFFFFFFFFFFFFFFFFFFFFFFEFFFFFC2F DUP1 PUSH2 0x4A6 JUMPI PUSH2 0x4A5 PUSH2 0x1288 JUMP JUMPDEST JUMPDEST PUSH32 0xFFFFFFFFFFFFFFFFFFFFFFFFFFFFFFFFFFFFFFFFFFFFFFFFFFFFFFFEFFFFFC2F DUP1 PUSH2 0x4D5 JUMPI PUSH2 0x4D4 PUSH2 0x1288 JUMP JUMPDEST JUMPDEST DUP7 DUP7 MULMOD PUSH32 0xFFFFFFFFFFFFFFFFFFFFFFFFFFFFFFFFFFFFFFFFFFFFFFFFFFFFFFFEFFFFFC2F DUP1 PUSH2 0x507 JUMPI PUSH2 0x506 PUSH2 0x1288 JUMP JUMPDEST JUMPDEST DUP9 DUP7 MULMOD ADDMOD PUSH32 0xFFFFFFFFFFFFFFFFFFFFFFFFFFFFFFFFFFFFFFFFFFFFFFFFFFFFFFFEFFFFFC2F DUP1 PUSH2 0x53A JUMPI PUSH2 0x539 PUSH2 0x1288 JUMP JUMPDEST JUMPDEST DUP5 DUP8 MULMOD DUP1 SWAP3 POP DUP2 SWAP4 POP POP POP SWAP5 POP SWAP5 SWAP3 POP POP POP JUMP JUMPDEST PUSH1 0x0 DUP1 PUSH32 0xFFFFFFFFFFFFFFFFFFFFFFFFFFFFFFFEBAAEDCE6AF48A03BBFD25E8CD0364141 SWAP1 POP PUSH1 0x0 PUSH1 0x1 PUSH1 0x0 DUP1 PUSH1 0x2 DUP11 PUSH2 0x588 SWAP2 SWAP1 PUSH2 0x12B7 JUMP JUMPDEST SUB PUSH2 0x594 JUMPI PUSH1 0x1B PUSH2 0x597 JUMP JUMPDEST PUSH1 0x1C JUMPDEST DUP11 PUSH1 0x0 SHL DUP6 DUP1 PUSH2 0x5AA JUMPI PUSH2 0x5A9 PUSH2 0x1288 JUMP JUMPDEST JUMPDEST DUP13 DUP12 MULMOD PUSH1 0x0 SHL PUSH1 0x40 MLOAD PUSH1 0x0 DUP2 MSTORE PUSH1 0x20 ADD PUSH1 0x40 MSTORE PUSH1 0x40 MLOAD PUSH2 0x5CD SWAP5 SWAP4 SWAP3 SWAP2 SWAP1 PUSH2 0x1365 JUMP JUMPDEST PUSH1 0x20 PUSH1 0x40 MLOAD PUSH1 0x20 DUP2 SUB SWAP1 DUP1 DUP5 SUB SWAP1 DUP6 GAS STATICCALL ISZERO DUP1 ISZERO PUSH2 0x5EF JUMPI RETURNDATASIZE PUSH1 0x0 DUP1 RETURNDATACOPY RETURNDATASIZE PUSH1 0x0 REVERT JUMPDEST POP POP POP PUSH1 0x20 PUSH1 0x40 MLOAD SUB MLOAD SWAP1 POP PUSH1 0x0 PUSH20 0xFFFFFFFFFFFFFFFFFFFFFFFFFFFFFFFFFFFFFFFF DUP7 DUP7 PUSH1 0x40 MLOAD PUSH1 0x20 ADD PUSH2 0x625 SWAP3 SWAP2 SWAP1 PUSH2 0x13CB JUMP JUMPDEST PUSH1 0x40 MLOAD PUSH1 0x20 DUP2 DUP4 SUB SUB DUP2 MSTORE SWAP1 PUSH1 0x40 MSTORE DUP1 MLOAD SWAP1 PUSH1 0x20 ADD KECCAK256 PUSH1 0x0 SHR AND SWAP1 POP DUP2 PUSH20 0xFFFFFFFFFFFFFFFFFFFFFFFFFFFFFFFFFFFFFFFF AND DUP2 PUSH20 0xFFFFFFFFFFFFFFFFFFFFFFFFFFFFFFFFFFFFFFFF AND EQ SWAP4 POP POP POP POP SWAP6 SWAP5 POP POP POP POP POP JUMP JUMPDEST PUSH32 0x79BE667EF9DCBBAC55A06295CE870B07029BFCDB2DCE28D959F2815B16F81798 DUP2 JUMP JUMPDEST PUSH1 0x0 DUP2 JUMP JUMPDEST PUSH1 0x0 DUP1 PUSH32 0xFFFFFFFFFFFFFFFFFFFFFFFFFFFFFFFFFFFFFFFFFFFFFFFFFFFFFFFEFFFFFC2F DUP1 PUSH2 0x6D9 JUMPI PUSH2 0x6D8 PUSH2 0x1288 JUMP JUMPDEST JUMPDEST PUSH32 0xFFFFFFFFFFFFFFFFFFFFFFFFFFFFFFFFFFFFFFFFFFFFFFFFFFFFFFFEFFFFFC2F DUP1 PUSH2 0x708 JUMPI PUSH2 0x707 PUSH2 0x1288 JUMP JUMPDEST JUMPDEST DUP7 DUP7 PUSH32 0xFFFFFFFFFFFFFFFFFFFFFFFFFFFFFFFFFFFFFFFFFFFFFFFFFFFFFFFEFFFFFC2F PUSH2 0x735 SWAP2 SWAP1 PUSH2 0x1426 JUMP JUMPDEST MULMOD PUSH32 0xFFFFFFFFFFFFFFFFFFFFFFFFFFFFFFFFFFFFFFFFFFFFFFFFFFFFFFFEFFFFFC2F DUP1 PUSH2 0x765 JUMPI PUSH2 0x764 PUSH2 0x1288 JUMP JUMPDEST JUMPDEST DUP9 DUP7 MULMOD ADDMOD PUSH32 0xFFFFFFFFFFFFFFFFFFFFFFFFFFFFFFFFFFFFFFFFFFFFFFFFFFFFFFFEFFFFFC2F DUP1 PUSH2 0x798 JUMPI PUSH2 0x797 PUSH2 0x1288 JUMP JUMPDEST JUMPDEST DUP5 DUP8 MULMOD DUP1 SWAP3 POP DUP2 SWAP4 POP POP POP SWAP5 POP SWAP5 SWAP3 POP POP POP JUMP JUMPDEST PUSH32 0x483ADA7726A3C4655DA4FBFC0E1108A8FD17B448A68554199C47D08FFB10D4B8 DUP2 JUMP JUMPDEST PUSH32 0xFFFFFFFFFFFFFFFFFFFFFFFFFFFFFFFFFFFFFFFFFFFFFFFFFFFFFFFEFFFFFC2F DUP2 JUMP JUMPDEST PUSH1 0x7 DUP2 JUMP JUMPDEST PUSH1 0x0 DUP1 PUSH32 0xFFFFFFFFFFFFFFFFFFFFFFFFFFFFFFFFFFFFFFFFFFFFFFFFFFFFFFFEFFFFFC2F DUP1 PUSH2 0x82B JUMPI PUSH2 0x82A PUSH2 0x1288 JUMP JUMPDEST JUMPDEST DUP5 DUP8 MULMOD PUSH32 0xFFFFFFFFFFFFFFFFFFFFFFFFFFFFFFFFFFFFFFFFFFFFFFFFFFFFFFFEFFFFFC2F DUP1 PUSH2 0x85D JUMPI PUSH2 0x85C PUSH2 0x1288 JUMP JUMPDEST JUMPDEST DUP5 DUP8 MULMOD DUP1 SWAP3 POP DUP2 SWAP4 POP POP POP SWAP5 POP SWAP5 SWAP3 POP POP POP JUMP JUMPDEST PUSH1 0x0 DUP1 PUSH32 0xFFFFFFFFFFFFFFFFFFFFFFFFFFFFFFFFFFFFFFFFFFFFFFFFFFFFFFFEFFFFFC2F DUP1 PUSH2 0x8A3 JUMPI PUSH2 0x8A2 PUSH2 0x1288 JUMP JUMPDEST JUMPDEST DUP4 DUP8 MULMOD PUSH32 0xFFFFFFFFFFFFFFFFFFFFFFFFFFFFFFFFFFFFFFFFFFFFFFFFFFFFFFFEFFFFFC2F DUP1 PUSH2 0x8D5 JUMPI PUSH2 0x8D4 PUSH2 0x1288 JUMP JUMPDEST JUMPDEST DUP6 DUP8 MULMOD DUP1 SWAP3 POP DUP2 SWAP4 POP POP POP SWAP5 POP SWAP5 SWAP3 POP POP POP JUMP JUMPDEST PUSH1 0x0 PUSH2 0x938 PUSH32 0x79BE667EF9DCBBAC55A06295CE870B07029BFCDB2DCE28D959F2815B16F81798 PUSH32 0x483ADA7726A3C4655DA4FBFC0E1108A8FD17B448A68554199C47D08FFB10D4B8 DUP7 DUP7 DUP7 PUSH2 0x54E JUMP JUMPDEST SWAP1 POP SWAP4 SWAP3 POP POP POP JUMP JUMPDEST PUSH1 0x0 DUP1 PUSH1 0x0 PUSH2 0x953 DUP5 DUP8 DUP8 PUSH1 0x1 PUSH2 0xB4B JUMP JUMPDEST DUP1 SWAP4 POP DUP2 SWAP5 POP DUP3 SWAP6 POP POP POP POP PUSH2 0x968 DUP2 PUSH2 0xA32 JUMP JUMPDEST SWAP1 POP PUSH32 0xFFFFFFFFFFFFFFFFFFFFFFFFFFFFFFFFFFFFFFFFFFFFFFFFFFFFFFFEFFFFFC2F DUP1 PUSH2 0x999 JUMPI PUSH2 0x998 PUSH2 0x1288 JUMP JUMPDEST JUMPDEST DUP2 DUP5 MULMOD SWAP3 POP PUSH32 0xFFFFFFFFFFFFFFFFFFFFFFFFFFFFFFFFFFFFFFFFFFFFFFFFFFFFFFFEFFFFFC2F DUP1 PUSH2 0x9CD JUMPI PUSH2 0x9CC PUSH2 0x1288 JUMP JUMPDEST JUMPDEST DUP2 DUP4 MULMOD SWAP2 POP POP SWAP4 POP SWAP4 SWAP2 POP POP JUMP JUMPDEST PUSH1 0x0 DUP1 PUSH2 0xA29 PUSH32 0x79BE667EF9DCBBAC55A06295CE870B07029BFCDB2DCE28D959F2815B16F81798 PUSH32 0x483ADA7726A3C4655DA4FBFC0E1108A8FD17B448A68554199C47D08FFB10D4B8 DUP6 PUSH2 0x941 JUMP JUMPDEST SWAP2 POP SWAP2 POP SWAP2 POP SWAP2 JUMP JUMPDEST PUSH1 0x0 DUP1 PUSH1 0x0 SWAP1 POP PUSH1 0x0 PUSH1 0x1 SWAP1 POP PUSH1 0x0 PUSH32 0xFFFFFFFFFFFFFFFFFFFFFFFFFFFFFFFFFFFFFFFFFFFFFFFFFFFFFFFEFFFFFC2F SWAP1 POP PUSH1 0x0 DUP6 SWAP1 POP PUSH1 0x0 JUMPDEST PUSH1 0x0 DUP3 EQ PUSH2 0xB3E JUMPI DUP2 DUP4 PUSH2 0xA80 SWAP2 SWAP1 PUSH2 0x145A JUMP JUMPDEST SWAP1 POP DUP4 PUSH32 0xFFFFFFFFFFFFFFFFFFFFFFFFFFFFFFFFFFFFFFFFFFFFFFFFFFFFFFFEFFFFFC2F DUP1 PUSH2 0xAB2 JUMPI PUSH2 0xAB1 PUSH2 0x1288 JUMP JUMPDEST JUMPDEST PUSH32 0xFFFFFFFFFFFFFFFFFFFFFFFFFFFFFFFFFFFFFFFFFFFFFFFFFFFFFFFEFFFFFC2F DUP1 PUSH2 0xAE1 JUMPI PUSH2 0xAE0 PUSH2 0x1288 JUMP JUMPDEST JUMPDEST DUP7 DUP5 MULMOD PUSH32 0xFFFFFFFFFFFFFFFFFFFFFFFFFFFFFFFFFFFFFFFFFFFFFFFFFFFFFFFEFFFFFC2F PUSH2 0xB0F SWAP2 SWAP1 PUSH2 0x1426 JUMP JUMPDEST DUP8 ADDMOD DUP1 SWAP6 POP DUP2 SWAP7 POP POP POP DUP2 DUP3 DUP3 PUSH2 0xB26 SWAP2 SWAP1 PUSH2 0x148B JUMP JUMPDEST DUP5 PUSH2 0xB31 SWAP2 SWAP1 PUSH2 0x1426 JUMP JUMPDEST DUP1 SWAP4 POP DUP2 SWAP5 POP POP POP PUSH2 0xA6C JUMP JUMPDEST DUP5 SWAP6 POP POP POP POP POP POP SWAP2 SWAP1 POP JUMP JUMPDEST PUSH1 0x0 DUP1 PUSH1 0x0 DUP1 DUP8 SWAP1 POP PUSH1 0x0 DUP8 SWAP1 POP PUSH1 0x0 DUP8 SWAP1 POP PUSH1 0x0 DUP8 SWAP1 POP PUSH1 0x0 DUP1 PUSH1 0x0 PUSH1 0x1 SWAP1 POP PUSH1 0x0 DUP15 SUB PUSH2 0xB8B JUMPI PUSH1 0x0 DUP1 PUSH1 0x1 SWAP10 POP SWAP10 POP SWAP10 POP POP POP POP POP POP POP POP PUSH2 0xBFC JUMP JUMPDEST JUMPDEST PUSH1 0x0 DUP8 EQ PUSH2 0xBE5 JUMPI PUSH1 0x0 PUSH1 0x1 DUP9 AND EQ PUSH2 0xBBA JUMPI PUSH2 0xBAD DUP4 DUP4 DUP4 DUP10 DUP10 DUP10 PUSH2 0xCA4 JUMP JUMPDEST DUP1 SWAP4 POP DUP2 SWAP5 POP DUP3 SWAP6 POP POP POP POP JUMPDEST PUSH1 0x2 DUP8 PUSH2 0xBC7 SWAP2 SWAP1 PUSH2 0x145A JUMP JUMPDEST SWAP7 POP PUSH2 0xBD4 DUP7 DUP7 DUP7 PUSH2 0xF76 JUMP JUMPDEST DUP1 SWAP7 POP DUP2 SWAP8 POP DUP3 SWAP9 POP POP POP POP PUSH2 0xB8C JUMP JUMPDEST DUP3 DUP3 DUP3 DUP1 SWAP11 POP DUP2 SWAP12 POP DUP3 SWAP13 POP POP POP POP POP POP POP POP POP POP POP JUMPDEST SWAP5 POP SWAP5 POP SWAP5 SWAP2 POP POP JUMP JUMPDEST PUSH1 0x0 DUP1 PUSH1 0x0 PUSH2 0xC1B DUP8 DUP8 PUSH1 0x1 DUP9 DUP9 PUSH1 0x1 PUSH2 0xCA4 JUMP JUMPDEST DUP1 SWAP4 POP DUP2 SWAP5 POP DUP3 SWAP6 POP POP POP POP PUSH2 0xC30 DUP2 PUSH2 0xA32 JUMP JUMPDEST SWAP1 POP PUSH32 0xFFFFFFFFFFFFFFFFFFFFFFFFFFFFFFFFFFFFFFFFFFFFFFFFFFFFFFFEFFFFFC2F DUP1 PUSH2 0xC61 JUMPI PUSH2 0xC60 PUSH2 0x1288 JUMP JUMPDEST JUMPDEST DUP2 DUP5 MULMOD SWAP3 POP PUSH32 0xFFFFFFFFFFFFFFFFFFFFFFFFFFFFFFFFFFFFFFFFFFFFFFFFFFFFFFFEFFFFFC2F DUP1 PUSH2 0xC95 JUMPI PUSH2 0xC94 PUSH2 0x1288 JUMP JUMPDEST JUMPDEST DUP2 DUP4 MULMOD SWAP2 POP POP SWAP5 POP SWAP5 SWAP3 POP POP POP JUMP JUMPDEST PUSH1 0x0 DUP1 PUSH1 0x0 DUP1 PUSH1 0x0 DUP1 PUSH1 0x0 DUP1 DUP14 EQ DUP1 ISZERO PUSH2 0xCBE JUMPI POP PUSH1 0x0 DUP13 EQ JUMPDEST ISZERO PUSH2 0xCD5 JUMPI DUP10 DUP10 DUP10 SWAP7 POP SWAP7 POP SWAP7 POP POP POP POP POP PUSH2 0xED0 JUMP JUMPDEST PUSH1 0x0 DUP11 EQ DUP1 ISZERO PUSH2 0xCE5 JUMPI POP PUSH1 0x0 DUP10 EQ JUMPDEST ISZERO PUSH2 0xCFC JUMPI DUP13 DUP13 DUP13 SWAP7 POP SWAP7 POP SWAP7 POP POP POP POP POP PUSH2 0xED0 JUMP JUMPDEST DUP10 DUP14 EQ DUP1 ISZERO PUSH2 0xD0A JUMPI POP DUP9 DUP13 EQ JUMPDEST ISZERO PUSH2 0xD6A JUMPI PUSH2 0xD1B DUP14 DUP13 DUP16 DUP15 PUSH2 0x7F9 JUMP JUMPDEST DUP1 SWAP5 POP DUP2 SWAP6 POP POP POP PUSH2 0xD31 DUP5 DUP5 PUSH1 0x3 PUSH1 0x1 PUSH2 0x7F9 JUMP JUMPDEST DUP1 SWAP5 POP DUP2 SWAP6 POP POP POP PUSH2 0xD47 DUP5 DUP5 PUSH1 0x0 PUSH1 0x1 PUSH2 0x474 JUMP JUMPDEST DUP1 SWAP5 POP DUP2 SWAP6 POP POP POP PUSH2 0xD5D DUP13 DUP13 PUSH1 0x2 PUSH1 0x1 PUSH2 0x7F9 JUMP JUMPDEST DUP1 SWAP3 POP DUP2 SWAP4 POP POP POP PUSH2 0xD93 JUMP JUMPDEST PUSH2 0xD76 DUP10 DUP10 DUP15 DUP15 PUSH2 0x6A7 JUMP JUMPDEST DUP1 SWAP5 POP DUP2 SWAP6 POP POP POP PUSH2 0xD8A DUP11 DUP10 DUP16 DUP15 PUSH2 0x6A7 JUMP JUMPDEST DUP1 SWAP3 POP DUP2 SWAP4 POP POP POP JUMPDEST PUSH2 0xD9F DUP5 DUP5 DUP5 DUP5 PUSH2 0x871 JUMP JUMPDEST DUP1 SWAP5 POP DUP2 SWAP6 POP POP POP PUSH2 0xDB3 DUP5 DUP5 DUP7 DUP7 PUSH2 0x7F9 JUMP JUMPDEST DUP1 SWAP4 POP DUP2 SWAP9 POP POP POP PUSH2 0xDC7 DUP8 DUP4 DUP16 DUP15 PUSH2 0x6A7 JUMP JUMPDEST DUP1 SWAP4 POP DUP2 SWAP9 POP POP POP PUSH2 0xDDB DUP8 DUP4 DUP13 DUP12 PUSH2 0x6A7 JUMP JUMPDEST DUP1 SWAP4 POP DUP2 SWAP9 POP POP POP PUSH2 0xDEF DUP14 DUP13 DUP10 DUP6 PUSH2 0x6A7 JUMP JUMPDEST DUP1 SWAP3 POP DUP2 SWAP8 POP POP POP PUSH2 0xE03 DUP7 DUP3 DUP7 DUP7 PUSH2 0x7F9 JUMP JUMPDEST DUP1 SWAP3 POP DUP2 SWAP8 POP POP POP PUSH2 0xE17 DUP7 DUP3 DUP15 DUP15 PUSH2 0x6A7 JUMP JUMPDEST DUP1 SWAP3 POP DUP2 SWAP8 POP POP POP DUP1 DUP3 EQ PUSH2 0xEC7 JUMPI PUSH32 0xFFFFFFFFFFFFFFFFFFFFFFFFFFFFFFFFFFFFFFFFFFFFFFFFFFFFFFFEFFFFFC2F DUP1 PUSH2 0xE55 JUMPI PUSH2 0xE54 PUSH2 0x1288 JUMP JUMPDEST JUMPDEST DUP2 DUP9 MULMOD SWAP7 POP PUSH32 0xFFFFFFFFFFFFFFFFFFFFFFFFFFFFFFFFFFFFFFFFFFFFFFFFFFFFFFFEFFFFFC2F DUP1 PUSH2 0xE89 JUMPI PUSH2 0xE88 PUSH2 0x1288 JUMP JUMPDEST JUMPDEST DUP3 DUP8 MULMOD SWAP6 POP PUSH32 0xFFFFFFFFFFFFFFFFFFFFFFFFFFFFFFFFFFFFFFFFFFFFFFFFFFFFFFFEFFFFFC2F DUP1 PUSH2 0xEBD JUMPI PUSH2 0xEBC PUSH2 0x1288 JUMP JUMPDEST JUMPDEST DUP2 DUP4 MULMOD SWAP5 POP PUSH2 0xECB JUMP JUMPDEST DUP2 SWAP5 POP JUMPDEST POP POP POP POP JUMPDEST SWAP7 POP SWAP7 POP SWAP7 SWAP4 POP POP POP POP JUMP JUMPDEST PUSH1 0x0 DUP1 PUSH1 0x0 PUSH2 0xEEE DUP7 DUP7 DUP7 PUSH1 0x1 PUSH2 0xB4B JUMP JUMPDEST DUP1 SWAP4 POP DUP2 SWAP5 POP DUP3 SWAP6 POP POP POP POP PUSH2 0xF03 DUP2 PUSH2 0xA32 JUMP JUMPDEST SWAP1 POP PUSH32 0xFFFFFFFFFFFFFFFFFFFFFFFFFFFFFFFFFFFFFFFFFFFFFFFFFFFFFFFEFFFFFC2F DUP1 PUSH2 0xF34 JUMPI PUSH2 0xF33 PUSH2 0x1288 JUMP JUMPDEST JUMPDEST DUP2 DUP5 MULMOD SWAP3 POP PUSH32 0xFFFFFFFFFFFFFFFFFFFFFFFFFFFFFFFFFFFFFFFFFFFFFFFFFFFFFFFEFFFFFC2F DUP1 PUSH2 0xF68 JUMPI PUSH2 0xF67 PUSH2 0x1288 JUMP JUMPDEST JUMPDEST DUP2 DUP4 MULMOD SWAP2 POP POP SWAP4 POP SWAP4 SWAP2 POP POP JUMP JUMPDEST PUSH1 0x0 DUP1 PUSH1 0x0 PUSH2 0xF89 DUP7 DUP7 DUP7 DUP10 DUP10 DUP10 PUSH2 0xCA4 JUMP JUMPDEST DUP1 SWAP4 POP DUP2 SWAP5 POP DUP3 SWAP6 POP POP POP POP SWAP4 POP SWAP4 POP SWAP4 SWAP1 POP JUMP JUMPDEST PUSH1 0x0 DUP1 REVERT JUMPDEST PUSH1 0x0 DUP2 SWAP1 POP SWAP2 SWAP1 POP JUMP JUMPDEST PUSH2 0xFB6 DUP2 PUSH2 0xFA3 JUMP JUMPDEST DUP2 EQ PUSH2 0xFC1 JUMPI PUSH1 0x0 DUP1 REVERT JUMPDEST POP JUMP JUMPDEST PUSH1 0x0 DUP2 CALLDATALOAD SWAP1 POP PUSH2 0xFD3 DUP2 PUSH2 0xFAD JUMP JUMPDEST SWAP3 SWAP2 POP POP JUMP JUMPDEST PUSH1 0x0 DUP1 PUSH1 0x0 DUP1 PUSH1 0x80 DUP6 DUP8 SUB SLT ISZERO PUSH2 0xFF3 JUMPI PUSH2 0xFF2 PUSH2 0xF9E JUMP JUMPDEST JUMPDEST PUSH1 0x0 PUSH2 0x1001 DUP8 DUP3 DUP9 ADD PUSH2 0xFC4 JUMP JUMPDEST SWAP5 POP POP PUSH1 0x20 PUSH2 0x1012 DUP8 DUP3 DUP9 ADD PUSH2 0xFC4 JUMP JUMPDEST SWAP4 POP POP PUSH1 0x40 PUSH2 0x1023 DUP8 DUP3 DUP9 ADD PUSH2 0xFC4 JUMP JUMPDEST SWAP3 POP POP PUSH1 0x60 PUSH2 0x1034 DUP8 DUP3 DUP9 ADD PUSH2 0xFC4 JUMP JUMPDEST SWAP2 POP POP SWAP3 SWAP6 SWAP2 SWAP5 POP SWAP3 POP JUMP JUMPDEST PUSH2 0x1049 DUP2 PUSH2 0xFA3 JUMP JUMPDEST DUP3 MSTORE POP POP JUMP JUMPDEST PUSH1 0x0 PUSH1 0x40 DUP3 ADD SWAP1 POP PUSH2 0x1064 PUSH1 0x0 DUP4 ADD DUP6 PUSH2 0x1040 JUMP JUMPDEST PUSH2 0x1071 PUSH1 0x20 DUP4 ADD DUP5 PUSH2 0x1040 JUMP JUMPDEST SWAP4 SWAP3 POP POP POP JUMP JUMPDEST PUSH1 0x0 DUP1 PUSH1 0x0 DUP1 PUSH1 0x0 PUSH1 0xA0 DUP7 DUP9 SUB SLT ISZERO PUSH2 0x1094 JUMPI PUSH2 0x1093 PUSH2 0xF9E JUMP JUMPDEST JUMPDEST PUSH1 0x0 PUSH2 0x10A2 DUP9 DUP3 DUP10 ADD PUSH2 0xFC4 JUMP JUMPDEST SWAP6 POP POP PUSH1 0x20 PUSH2 0x10B3 DUP9 DUP3 DUP10 ADD PUSH2 0xFC4 JUMP JUMPDEST SWAP5 POP POP PUSH1 0x40 PUSH2 0x10C4 DUP9 DUP3 DUP10 ADD PUSH2 0xFC4 JUMP JUMPDEST SWAP4 POP POP PUSH1 0x60 PUSH2 0x10D5 DUP9 DUP3 DUP10 ADD PUSH2 0xFC4 JUMP JUMPDEST SWAP3 POP POP PUSH1 0x80 PUSH2 0x10E6 DUP9 DUP3 DUP10 ADD PUSH2 0xFC4 JUMP JUMPDEST SWAP2 POP POP SWAP3 SWAP6 POP SWAP3 SWAP6 SWAP1 SWAP4 POP JUMP JUMPDEST PUSH1 0x0 DUP2 ISZERO ISZERO SWAP1 POP SWAP2 SWAP1 POP JUMP JUMPDEST PUSH2 0x1108 DUP2 PUSH2 0x10F3 JUMP JUMPDEST DUP3 MSTORE POP POP JUMP JUMPDEST PUSH1 0x0 PUSH1 0x20 DUP3 ADD SWAP1 POP PUSH2 0x1123 PUSH1 0x0 DUP4 ADD DUP5 PUSH2 0x10FF JUMP JUMPDEST SWAP3 SWAP2 POP POP JUMP JUMPDEST PUSH1 0x0 PUSH1 0x20 DUP3 ADD SWAP1 POP PUSH2 0x113E PUSH1 0x0 DUP4 ADD DUP5 PUSH2 0x1040 JUMP JUMPDEST SWAP3 SWAP2 POP POP JUMP JUMPDEST PUSH1 0x0 DUP1 PUSH1 0x0 PUSH1 0x60 DUP5 DUP7 SUB SLT ISZERO PUSH2 0x115D JUMPI PUSH2 0x115C PUSH2 0xF9E JUMP JUMPDEST JUMPDEST PUSH1 0x0 PUSH2 0x116B DUP7 DUP3 DUP8 ADD PUSH2 0xFC4 JUMP JUMPDEST SWAP4 POP POP PUSH1 0x20 PUSH2 0x117C DUP7 DUP3 DUP8 ADD PUSH2 0xFC4 JUMP JUMPDEST SWAP3 POP POP PUSH1 0x40 PUSH2 0x118D DUP7 DUP3 DUP8 ADD PUSH2 0xFC4 JUMP JUMPDEST SWAP2 POP POP SWAP3 POP SWAP3 POP SWAP3 JUMP JUMPDEST PUSH1 0x0 PUSH1 0x20 DUP3 DUP5 SUB SLT ISZERO PUSH2 0x11AD JUMPI PUSH2 0x11AC PUSH2 0xF9E JUMP JUMPDEST JUMPDEST PUSH1 0x0 PUSH2 0x11BB DUP5 DUP3 DUP6 ADD PUSH2 0xFC4 JUMP JUMPDEST SWAP2 POP POP SWAP3 SWAP2 POP POP JUMP JUMPDEST PUSH1 0x0 PUSH1 0x60 DUP3 ADD SWAP1 POP PUSH2 0x11D9 PUSH1 0x0 DUP4 ADD DUP7 PUSH2 0x1040 JUMP JUMPDEST PUSH2 0x11E6 PUSH1 0x20 DUP4 ADD DUP6 PUSH2 0x1040 JUMP JUMPDEST PUSH2 0x11F3 PUSH1 0x40 DUP4 ADD DUP5 PUSH2 0x1040 JUMP JUMPDEST SWAP5 SWAP4 POP POP POP POP JUMP JUMPDEST PUSH1 0x0 DUP1 PUSH1 0x0 DUP1 PUSH1 0x0 DUP1 PUSH1 0xC0 DUP8 DUP10 SUB SLT ISZERO PUSH2 0x1218 JUMPI PUSH2 0x1217 PUSH2 0xF9E JUMP JUMPDEST JUMPDEST PUSH1 0x0 PUSH2 0x1226 DUP10 DUP3 DUP11 ADD PUSH2 0xFC4 JUMP JUMPDEST SWAP7 POP POP PUSH1 0x20 PUSH2 0x1237 DUP10 DUP3 DUP11 ADD PUSH2 0xFC4 JUMP JUMPDEST SWAP6 POP POP PUSH1 0x40 PUSH2 0x1248 DUP10 DUP3 DUP11 ADD PUSH2 0xFC4 JUMP JUMPDEST SWAP5 POP POP PUSH1 0x60 PUSH2 0x1259 DUP10 DUP3 DUP11 ADD PUSH2 0xFC4 JUMP JUMPDEST SWAP4 POP POP PUSH1 0x80 PUSH2 0x126A DUP10 DUP3 DUP11 ADD PUSH2 0xFC4 JUMP JUMPDEST SWAP3 POP POP PUSH1 0xA0 PUSH2 0x127B DUP10 DUP3 DUP11 ADD PUSH2 0xFC4 JUMP JUMPDEST SWAP2 POP POP SWAP3 SWAP6 POP SWAP3 SWAP6 POP SWAP3 SWAP6 JUMP JUMPDEST PUSH32 0x4E487B7100000000000000000000000000000000000000000000000000000000 PUSH1 0x0 MSTORE PUSH1 0x12 PUSH1 0x4 MSTORE PUSH1 0x24 PUSH1 0x0 REVERT JUMPDEST PUSH1 0x0 PUSH2 0x12C2 DUP3 PUSH2 0xFA3 JUMP JUMPDEST SWAP2 POP PUSH2 0x12CD DUP4 PUSH2 0xFA3 JUMP JUMPDEST SWAP3 POP DUP3 PUSH2 0x12DD JUMPI PUSH2 0x12DC PUSH2 0x1288 JUMP JUMPDEST JUMPDEST DUP3 DUP3 MOD SWAP1 POP SWAP3 SWAP2 POP POP JUMP JUMPDEST PUSH1 0x0 DUP2 SWAP1 POP SWAP2 SWAP1 POP JUMP JUMPDEST PUSH1 0x0 DUP2 SWAP1 POP SWAP2 SWAP1 POP JUMP JUMPDEST PUSH1 0x0 DUP2 PUSH1 0x0 SHL SWAP1 POP SWAP2 SWAP1 POP JUMP JUMPDEST PUSH1 0x0 PUSH2 0x1324 PUSH2 0x131F PUSH2 0x131A DUP5 PUSH2 0x12E8 JUMP JUMPDEST PUSH2 0x12FC JUMP JUMPDEST PUSH2 0x12F2 JUMP JUMPDEST SWAP1 POP SWAP2 SWAP1 POP JUMP JUMPDEST PUSH2 0x1334 DUP2 PUSH2 0x1309 JUMP JUMPDEST DUP3 MSTORE POP POP JUMP JUMPDEST PUSH1 0x0 PUSH1 0xFF DUP3 AND SWAP1 POP SWAP2 SWAP1 POP JUMP JUMPDEST PUSH2 0x1350 DUP2 PUSH2 0x133A JUMP JUMPDEST DUP3 MSTORE POP POP JUMP JUMPDEST PUSH2 0x135F DUP2 PUSH2 0x12F2 JUMP JUMPDEST DUP3 MSTORE POP POP JUMP JUMPDEST PUSH1 0x0 PUSH1 0x80 DUP3 ADD SWAP1 POP PUSH2 0x137A PUSH1 0x0 DUP4 ADD DUP8 PUSH2 0x132B JUMP JUMPDEST PUSH2 0x1387 PUSH1 0x20 DUP4 ADD DUP7 PUSH2 0x1347 JUMP JUMPDEST PUSH2 0x1394 PUSH1 0x40 DUP4 ADD DUP6 PUSH2 0x1356 JUMP JUMPDEST PUSH2 0x13A1 PUSH1 0x60 DUP4 ADD DUP5 PUSH2 0x1356 JUMP JUMPDEST SWAP6 SWAP5 POP POP POP POP POP JUMP JUMPDEST PUSH1 0x0 DUP2 SWAP1 POP SWAP2 SWAP1 POP JUMP JUMPDEST PUSH2 0x13C5 PUSH2 0x13C0 DUP3 PUSH2 0xFA3 JUMP JUMPDEST PUSH2 0x13AA JUMP JUMPDEST DUP3 MSTORE POP POP JUMP JUMPDEST PUSH1 0x0 PUSH2 0x13D7 DUP3 DUP6 PUSH2 0x13B4 JUMP JUMPDEST PUSH1 0x20 DUP3 ADD SWAP2 POP PUSH2 0x13E7 DUP3 DUP5 PUSH2 0x13B4 JUMP JUMPDEST PUSH1 0x20 DUP3 ADD SWAP2 POP DUP2 SWAP1 POP SWAP4 SWAP3 POP POP POP JUMP JUMPDEST PUSH32 0x4E487B7100000000000000000000000000000000000000000000000000000000 PUSH1 0x0 MSTORE PUSH1 0x11 PUSH1 0x4 MSTORE PUSH1 0x24 PUSH1 0x0 REVERT JUMPDEST PUSH1 0x0 PUSH2 0x1431 DUP3 PUSH2 0xFA3 JUMP JUMPDEST SWAP2 POP PUSH2 0x143C DUP4 PUSH2 0xFA3 JUMP JUMPDEST SWAP3 POP DUP3 DUP3 SUB SWAP1 POP DUP2 DUP2 GT ISZERO PUSH2 0x1454 JUMPI PUSH2 0x1453 PUSH2 0x13F7 JUMP JUMPDEST JUMPDEST SWAP3 SWAP2 POP POP JUMP JUMPDEST PUSH1 0x0 PUSH2 0x1465 DUP3 PUSH2 0xFA3 JUMP JUMPDEST SWAP2 POP PUSH2 0x1470 DUP4 PUSH2 0xFA3 JUMP JUMPDEST SWAP3 POP DUP3 PUSH2 0x1480 JUMPI PUSH2 0x147F PUSH2 0x1288 JUMP JUMPDEST JUMPDEST DUP3 DUP3 DIV SWAP1 POP SWAP3 SWAP2 POP POP JUMP JUMPDEST PUSH1 0x0 PUSH2 0x1496 DUP3 PUSH2 0xFA3 JUMP JUMPDEST SWAP2 POP PUSH2 0x14A1 DUP4 PUSH2 0xFA3 JUMP JUMPDEST SWAP3 POP DUP3 DUP3 MUL PUSH2 0x14AF DUP2 PUSH2 0xFA3 JUMP JUMPDEST SWAP2 POP DUP3 DUP3 DIV DUP5 EQ DUP4 ISZERO OR PUSH2 0x14C6 JUMPI PUSH2 0x14C5 PUSH2 0x13F7 JUMP JUMPDEST JUMPDEST POP SWAP3 SWAP2 POP POP JUMP INVALID LOG2 PUSH5 0x6970667358 0x22 SLT KECCAK256 SIGNEXTEND DELEGATECALL PUSH24 0x44CF1D52CA84BDFB53A7D71279D5805409445D78C2F4D4A4 0xB5 DUP4 PUSH21 0x6EB664736F6C634300081200330000000000000000 "},"methodIdentifiers":{"_ecAdd(uint256,uint256,uint256,uint256,uint256,uint256)":"db318833","_ecDouble(uint256,uint256,uint256)":"f47289e1","_ecMul(uint256,uint256,uint256,uint256)":"913f424c","_inverse(uint256)":"8cecf66e","_jAdd(uint256,uint256,uint256,uint256)":"0138e31b","_jDiv(uint256,uint256,uint256,uint256)":"5f972df8","_jMul(uint256,uint256,uint256,uint256)":"5b764811","_jSub(uint256,uint256,uint256,uint256)":"1ecfe64d","a()":"0dbe671f","b()":"4df7e3d0","deriveKey(uint256,uint256,uint256)":"e241c1d9","ecadd(uint256,uint256,uint256,uint256)":"bb8c256a","ecmul(uint256,uint256,uint256)":"8081a1e7","ecmulVerify(uint256,uint256,uint256,uint256,uint256)":"022079d9","gx()":"06c91ce3","gy()":"2d58c9a2","n()":"2e52d606","publicKey(uint256)":"8940aebe","publicKeyVerify(uint256,uint256,uint256)":"66ce10b7"}}}}}