{
  "_format": "hh-sol-artifact-1",
  "contractName": "AtomicCloakV2",
  "sourceName": "contracts/AtomicCloakV2.sol",
  "abi": [
    {
      "inputs": [
        {
          "internalType": "address",
          "name": "__entryPoint",
          "type": "address"
        }
      ],
      "stateMutability": "nonpayable",
      "type": "constructor"
    },
    {
      "anonymous": false,
      "inputs": [
        {
          "indexed": true,
          "internalType": "address",
          "name": "_swapID",
          "type": "address"
        },
        {
          "indexed": true,
          "internalType": "uint256",
          "name": "_secretKey",
          "type": "uint256"
        }
      ],
      "name": "Close",
      "type": "event"
    },
    {
      "anonymous": false,
      "inputs": [
        {
          "indexed": true,
          "internalType": "address",
          "name": "_swapID",
          "type": "address"
        }
      ],
      "name": "Expire",
      "type": "event"
    },
    {
      "anonymous": false,
      "inputs": [
        {
          "indexed": true,
          "internalType": "address",
          "name": "_swapID",
          "type": "address"
        }
      ],
      "name": "Open",
      "type": "event"
    },
    {
      "inputs": [],
      "name": "CLOSE_NO_VERIFY_SELECTOR",
      "outputs": [
        {
          "internalType": "bytes4",
          "name": "",
          "type": "bytes4"
        }
      ],
      "stateMutability": "view",
      "type": "function"
    },
    {
      "inputs": [],
      "name": "G_X",
      "outputs": [
        {
          "internalType": "uint256",
          "name": "",
          "type": "uint256"
        }
      ],
      "stateMutability": "view",
      "type": "function"
    },
    {
      "inputs": [],
      "name": "G_Y",
      "outputs": [
        {
          "internalType": "uint256",
          "name": "",
          "type": "uint256"
        }
      ],
      "stateMutability": "view",
      "type": "function"
    },
    {
      "inputs": [],
      "name": "G_Y_PARITY",
      "outputs": [
        {
          "internalType": "uint8",
          "name": "",
          "type": "uint8"
        }
      ],
      "stateMutability": "view",
      "type": "function"
    },
    {
      "inputs": [],
      "name": "N",
      "outputs": [
        {
          "internalType": "uint256",
          "name": "",
          "type": "uint256"
        }
      ],
      "stateMutability": "view",
      "type": "function"
    },
    {
      "inputs": [],
      "name": "P",
      "outputs": [
        {
          "internalType": "uint256",
          "name": "",
          "type": "uint256"
        }
      ],
      "stateMutability": "view",
      "type": "function"
    },
    {
      "inputs": [
        {
          "internalType": "address",
          "name": "_swapID",
          "type": "address"
        },
        {
          "internalType": "uint256",
          "name": "_secretKey",
          "type": "uint256"
        },
        {
          "internalType": "uint256",
          "name": "_requiredPrefund",
          "type": "uint256"
        }
      ],
      "name": "closeNoVerify",
      "outputs": [],
      "stateMutability": "nonpayable",
      "type": "function"
    },
    {
      "inputs": [
        {
          "internalType": "address",
          "name": "_swapID",
          "type": "address"
        },
        {
          "internalType": "uint256",
          "name": "_secretKey",
          "type": "uint256"
        }
      ],
      "name": "closeSwap",
      "outputs": [],
      "stateMutability": "payable",
      "type": "function"
    },
    {
      "inputs": [
        {
          "internalType": "uint256",
          "name": "_secretKey",
          "type": "uint256"
        }
      ],
      "name": "commitmentFromSecret",
      "outputs": [
        {
          "internalType": "uint256",
          "name": "",
          "type": "uint256"
        },
        {
          "internalType": "uint256",
          "name": "",
          "type": "uint256"
        }
      ],
      "stateMutability": "pure",
      "type": "function"
    },
    {
      "inputs": [
        {
          "internalType": "uint256",
          "name": "_qx",
          "type": "uint256"
        },
        {
          "internalType": "uint256",
          "name": "_qy",
          "type": "uint256"
        },
        {
          "internalType": "uint256",
          "name": "_sharedSecret",
          "type": "uint256"
        }
      ],
      "name": "commitmentFromSharedSecret",
      "outputs": [
        {
          "internalType": "uint256",
          "name": "",
          "type": "uint256"
        },
        {
          "internalType": "uint256",
          "name": "",
          "type": "uint256"
        }
      ],
      "stateMutability": "pure",
      "type": "function"
    },
    {
      "inputs": [
        {
          "internalType": "uint256",
          "name": "_qx",
          "type": "uint256"
        },
        {
          "internalType": "uint256",
          "name": "_qy",
          "type": "uint256"
        }
      ],
      "name": "commitmentToAddress",
      "outputs": [
        {
          "internalType": "address",
          "name": "",
          "type": "address"
        }
      ],
      "stateMutability": "pure",
      "type": "function"
    },
    {
      "inputs": [],
      "name": "entryPoint",
      "outputs": [
        {
          "internalType": "contract IEntryPoint",
          "name": "",
          "type": "address"
        }
      ],
      "stateMutability": "view",
      "type": "function"
    },
    {
      "inputs": [
        {
          "internalType": "uint256",
          "name": "_secretKey",
          "type": "uint256"
        }
      ],
      "name": "getHashedCommitment",
      "outputs": [
        {
          "internalType": "address",
          "name": "",
          "type": "address"
        }
      ],
      "stateMutability": "pure",
      "type": "function"
    },
    {
      "inputs": [],
      "name": "getNonce",
      "outputs": [
        {
          "internalType": "uint256",
          "name": "",
          "type": "uint256"
        }
      ],
      "stateMutability": "view",
      "type": "function"
    },
    {
      "inputs": [
        {
          "internalType": "uint256",
          "name": "_qx",
          "type": "uint256"
        },
        {
          "internalType": "uint256",
          "name": "_qy",
          "type": "uint256"
        },
        {
          "internalType": "address payable",
          "name": "_recipient",
          "type": "address"
        },
        {
          "internalType": "uint256",
          "name": "_timelock",
          "type": "uint256"
        },
        {
          "internalType": "address",
          "name": "_tokenAddress",
          "type": "address"
        },
        {
          "internalType": "uint256",
          "name": "_value",
          "type": "uint256"
        }
      ],
      "name": "openERC20Swap",
      "outputs": [],
      "stateMutability": "payable",
      "type": "function"
    },
    {
      "inputs": [
        {
          "internalType": "uint256",
          "name": "_qx",
          "type": "uint256"
        },
        {
          "internalType": "uint256",
          "name": "_qy",
          "type": "uint256"
        },
        {
          "internalType": "address payable",
          "name": "_recipient",
          "type": "address"
        },
        {
          "internalType": "uint256",
          "name": "_timelock",
          "type": "uint256"
        }
      ],
      "name": "openETHSwap",
      "outputs": [],
      "stateMutability": "payable",
      "type": "function"
    },
    {
      "inputs": [
        {
          "internalType": "address",
          "name": "",
          "type": "address"
        }
      ],
      "name": "swaps",
      "outputs": [
        {
          "internalType": "uint256",
          "name": "timelock",
          "type": "uint256"
        },
        {
          "internalType": "address",
          "name": "tokenContract",
          "type": "address"
        },
        {
          "internalType": "uint256",
          "name": "value",
          "type": "uint256"
        },
        {
          "internalType": "address payable",
          "name": "sender",
          "type": "address"
        },
        {
          "internalType": "address payable",
          "name": "recipient",
          "type": "address"
        }
      ],
      "stateMutability": "view",
      "type": "function"
    },
    {
      "inputs": [
        {
          "components": [
            {
              "internalType": "address",
              "name": "sender",
              "type": "address"
            },
            {
              "internalType": "uint256",
              "name": "nonce",
              "type": "uint256"
            },
            {
              "internalType": "bytes",
              "name": "initCode",
              "type": "bytes"
            },
            {
              "internalType": "bytes",
              "name": "callData",
              "type": "bytes"
            },
            {
              "internalType": "uint256",
              "name": "callGasLimit",
              "type": "uint256"
            },
            {
              "internalType": "uint256",
              "name": "verificationGasLimit",
              "type": "uint256"
            },
            {
              "internalType": "uint256",
              "name": "preVerificationGas",
              "type": "uint256"
            },
            {
              "internalType": "uint256",
              "name": "maxFeePerGas",
              "type": "uint256"
            },
            {
              "internalType": "uint256",
              "name": "maxPriorityFeePerGas",
              "type": "uint256"
            },
            {
              "internalType": "bytes",
              "name": "paymasterAndData",
              "type": "bytes"
            },
            {
              "internalType": "bytes",
              "name": "signature",
              "type": "bytes"
            }
          ],
          "internalType": "struct UserOperation",
          "name": "userOp",
          "type": "tuple"
        }
      ],
      "name": "validateSignature_test",
      "outputs": [],
      "stateMutability": "view",
      "type": "function"
    },
    {
      "inputs": [
        {
          "components": [
            {
              "internalType": "address",
              "name": "sender",
              "type": "address"
            },
            {
              "internalType": "uint256",
              "name": "nonce",
              "type": "uint256"
            },
            {
              "internalType": "bytes",
              "name": "initCode",
              "type": "bytes"
            },
            {
              "internalType": "bytes",
              "name": "callData",
              "type": "bytes"
            },
            {
              "internalType": "uint256",
              "name": "callGasLimit",
              "type": "uint256"
            },
            {
              "internalType": "uint256",
              "name": "verificationGasLimit",
              "type": "uint256"
            },
            {
              "internalType": "uint256",
              "name": "preVerificationGas",
              "type": "uint256"
            },
            {
              "internalType": "uint256",
              "name": "maxFeePerGas",
              "type": "uint256"
            },
            {
              "internalType": "uint256",
              "name": "maxPriorityFeePerGas",
              "type": "uint256"
            },
            {
              "internalType": "bytes",
              "name": "paymasterAndData",
              "type": "bytes"
            },
            {
              "internalType": "bytes",
              "name": "signature",
              "type": "bytes"
            }
          ],
          "internalType": "struct UserOperation",
          "name": "userOp",
          "type": "tuple"
        },
        {
          "internalType": "bytes32",
          "name": "userOpHash",
          "type": "bytes32"
        },
        {
          "internalType": "uint256",
          "name": "missingAccountFunds",
          "type": "uint256"
        }
      ],
      "name": "validateUserOp",
      "outputs": [
        {
          "internalType": "uint256",
          "name": "validationData",
          "type": "uint256"
        }
      ],
      "stateMutability": "nonpayable",
      "type": "function"
    },
    {
      "stateMutability": "payable",
      "type": "receive"
    }
  ],
  "bytecode": "0x610180604052600073ffffffffffffffffffffffffffffffffffffffff1660a09073ffffffffffffffffffffffffffffffffffffffff1681525063e9dd422860e01b7bffffffffffffffffffffffffffffffffffffffffffffffffffffffff191660c0907bffffffffffffffffffffffffffffffffffffffffffffffffffffffff19168152507f79be667ef9dcbbac55a06295ce870b07029bfcdb2dce28d959f2815b16f8179860e0908152507f483ada7726a3c4655da4fbfc0e1108a8fd17b448a68554199c47d08ffb10d4b861010090815250601b60ff166101209060ff168152507ffffffffffffffffffffffffffffffffffffffffffffffffffffffffefffffc2f610140908152507ffffffffffffffffffffffffffffffffebaaedce6af48a03bbfd25e8cd0364141610160908152503480156200014057600080fd5b5060405162003c5c38038062003c5c83398181016040528101906200016691906200020b565b8073ffffffffffffffffffffffffffffffffffffffff1660808173ffffffffffffffffffffffffffffffffffffffff1681525050506200023d565b600080fd5b600073ffffffffffffffffffffffffffffffffffffffff82169050919050565b6000620001d382620001a6565b9050919050565b620001e581620001c6565b8114620001f157600080fd5b50565b6000815190506200020581620001da565b92915050565b600060208284031215620002245762000223620001a1565b5b60006200023484828501620001f4565b91505092915050565b60805160a05160c05160e0516101005161012051610140516101605161395e620002fe6000396000818161124c0152611661015260006110f1015260008181611204015261161c015260008181610a7e0152611153015260008181611132015281816112280152818161163d0152611690015260008181610b6f0152818161107c0152611a4301526000818161060201528181610db90152818161142501528181611c6f015281816120ac01526124d0015260006111de015261395e6000f3fe6080604052600436106101185760003560e01c80639fc4c830116100a0578063d087d28811610064578063d087d288146103cd578063d9a3d893146103f8578063df87326414610414578063e9dd422814610451578063ec65dfa41461047a5761011f565b80639fc4c830146102e3578063b0d691fe14610321578063c1d2f0c91461034c578063c77cf1d714610377578063c9e525df146103a25761011f565b80633a871cdd116100e75780633a871cdd146101d557806365f1baf31461021257806386b8884114610250578063888396d11461027b5780638b8fbd92146102b85761011f565b80631688cf54146101245780632cca2cb0146101655780633586dbb41461018157806338f05f60146101ac5761011f565b3661011f57005b600080fd5b34801561013057600080fd5b5061014b600480360381019061014691906126eb565b610496565b60405161015c959493929190612761565b60405180910390f35b61017f600480360381019061017a919061280c565b61052c565b005b34801561018d57600080fd5b50610196610a7c565b6040516101a39190612899565b60405180910390f35b3480156101b857600080fd5b506101d360048036038101906101ce91906128d9565b610aa0565b005b3480156101e157600080fd5b506101fc60048036038101906101f79190612958565b610fa9565b6040516102099190612899565b60405180910390f35b34801561021e57600080fd5b50610239600480360381019061023491906129c7565b610fdc565b604051610247929190612a1a565b60405180910390f35b34801561025c57600080fd5b5061026561107a565b6040516102729190612a7e565b60405180910390f35b34801561028757600080fd5b506102a2600480360381019061029d9190612a99565b61109e565b6040516102af9190612ad9565b60405180910390f35b3480156102c457600080fd5b506102cd6110ef565b6040516102da9190612899565b60405180910390f35b3480156102ef57600080fd5b5061030a60048036038101906103059190612af4565b611113565b604051610318929190612a1a565b60405180910390f35b34801561032d57600080fd5b506103366111da565b6040516103439190612b80565b60405180910390f35b34801561035857600080fd5b50610361611202565b60405161036e9190612bb7565b60405180910390f35b34801561038357600080fd5b5061038c611226565b6040516103999190612899565b60405180910390f35b3480156103ae57600080fd5b506103b761124a565b6040516103c49190612899565b60405180910390f35b3480156103d957600080fd5b506103e261126e565b6040516103ef9190612899565b60405180910390f35b610412600480360381019061040d9190612bd2565b6112f9565b005b34801561042057600080fd5b5061043b60048036038101906104369190612af4565b611613565b6040516104489190612ad9565b60405180910390f35b34801561045d57600080fd5b5061047860048036038101906104739190612c39565b611708565b005b610494600480360381019061048f9190612c8c565b611777565b005b60006020528060005260406000206000915090508060000154908060010160009054906101000a900473ffffffffffffffffffffffffffffffffffffffff16908060020154908060030160009054906101000a900473ffffffffffffffffffffffffffffffffffffffff16908060040160009054906101000a900473ffffffffffffffffffffffffffffffffffffffff16905085565b6000610538878761109e565b905060008060008373ffffffffffffffffffffffffffffffffffffffff1673ffffffffffffffffffffffffffffffffffffffff16815260200190815260200160002060020154146105be576040517f08c379a00000000000000000000000000000000000000000000000000000000081526004016105b590612d29565b60405180910390fd5b428411610600576040517f08c379a00000000000000000000000000000000000000000000000000000000081526004016105f790612dbb565b60405180910390fd5b7f000000000000000000000000000000000000000000000000000000000000000073ffffffffffffffffffffffffffffffffffffffff168373ffffffffffffffffffffffffffffffffffffffff160361068e576040517f08c379a000000000000000000000000000000000000000000000000000000000815260040161068590612e4d565b60405180910390fd5b600034146106d1576040517f08c379a00000000000000000000000000000000000000000000000000000000081526004016106c890612edf565b60405180910390fd5b60008211610714576040517f08c379a000000000000000000000000000000000000000000000000000000000815260040161070b90612f4b565b60405180910390fd5b6000839050828173ffffffffffffffffffffffffffffffffffffffff1663dd62ed3e33306040518363ffffffff1660e01b8152600401610755929190612f6b565b602060405180830381865afa158015610772573d6000803e3d6000fd5b505050506040513d601f19601f820116820180604052508101906107969190612fa9565b10156107d7576040517f08c379a00000000000000000000000000000000000000000000000000000000081526004016107ce90613022565b60405180910390fd5b8073ffffffffffffffffffffffffffffffffffffffff166323b872dd3330866040518463ffffffff1660e01b815260040161081493929190613042565b6020604051808303816000875af1158015610833573d6000803e3d6000fd5b505050506040513d601f19601f8201168201806040525081019061085791906130b1565b610896576040517f08c379a000000000000000000000000000000000000000000000000000000000815260040161088d9061312a565b60405180910390fd5b60006040518060a001604052808781526020018673ffffffffffffffffffffffffffffffffffffffff1681526020018581526020013373ffffffffffffffffffffffffffffffffffffffff1681526020018873ffffffffffffffffffffffffffffffffffffffff168152509050806000808573ffffffffffffffffffffffffffffffffffffffff1673ffffffffffffffffffffffffffffffffffffffff1681526020019081526020016000206000820151816000015560208201518160010160006101000a81548173ffffffffffffffffffffffffffffffffffffffff021916908373ffffffffffffffffffffffffffffffffffffffff1602179055506040820151816002015560608201518160030160006101000a81548173ffffffffffffffffffffffffffffffffffffffff021916908373ffffffffffffffffffffffffffffffffffffffff16021790555060808201518160040160006101000a81548173ffffffffffffffffffffffffffffffffffffffff021916908373ffffffffffffffffffffffffffffffffffffffff1602179055509050508273ffffffffffffffffffffffffffffffffffffffff167fece7583a70a505ef0e36d4dec768f5ae597713e09c26011022599ee01abdabfc60405160405180910390a2505050505050505050565b7f000000000000000000000000000000000000000000000000000000000000000081565b6000818060600190610ab29190613159565b600090600492610ac4939291906131c6565b90610acf9190613219565b90506000828060600190610ae39190613159565b600490602492610af5939291906131c6565b90610b009190613278565b60001c90506000838060600190610b179190613159565b602490604492610b29939291906131c6565b90610b349190613278565b60001c90506000848060600190610b4b9190613159565b604490606492610b5d939291906131c6565b90610b689190613278565b60001c90507f00000000000000000000000000000000000000000000000000000000000000007bffffffffffffffffffffffffffffffffffffffffffffffffffffffff1916847bffffffffffffffffffffffffffffffffffffffffffffffffffffffff191614610c0d576040517f08c379a0000000000000000000000000000000000000000000000000000000008152600401610c0490613323565b60405180910390fd5b60008060008573ffffffffffffffffffffffffffffffffffffffff1673ffffffffffffffffffffffffffffffffffffffff1681526020019081526020016000206040518060a0016040529081600082015481526020016001820160009054906101000a900473ffffffffffffffffffffffffffffffffffffffff1673ffffffffffffffffffffffffffffffffffffffff1673ffffffffffffffffffffffffffffffffffffffff168152602001600282015481526020016003820160009054906101000a900473ffffffffffffffffffffffffffffffffffffffff1673ffffffffffffffffffffffffffffffffffffffff1673ffffffffffffffffffffffffffffffffffffffff1681526020016004820160009054906101000a900473ffffffffffffffffffffffffffffffffffffffff1673ffffffffffffffffffffffffffffffffffffffff1673ffffffffffffffffffffffffffffffffffffffff168152505090506000816040015111610db7576040517f08c379a0000000000000000000000000000000000000000000000000000000008152600401610dae9061338f565b60405180910390fd5b7f000000000000000000000000000000000000000000000000000000000000000073ffffffffffffffffffffffffffffffffffffffff16816020015173ffffffffffffffffffffffffffffffffffffffff1614610e49576040517f08c379a0000000000000000000000000000000000000000000000000000000008152600401610e40906133fb565b60405180910390fd5b6000604051806101000160405280886000016020810190610e6a91906126eb565b73ffffffffffffffffffffffffffffffffffffffff16815260200188602001358152602001886080013581526020018860a0013581526020018860c001358152602001600073ffffffffffffffffffffffffffffffffffffffff1681526020018860e0013581526020018861010001358152509050610ee8816118d7565b831015610f2a576040517f08c379a0000000000000000000000000000000000000000000000000000000008152600401610f2190613467565b60405180910390fd5b8473ffffffffffffffffffffffffffffffffffffffff16610f4a85611613565b73ffffffffffffffffffffffffffffffffffffffff1614610fa0576040517f08c379a0000000000000000000000000000000000000000000000000000000008152600401610f97906134d3565b60405180910390fd5b50505050505050565b6000610fb36118fc565b610fbd8484611973565b9050610fcc8460200135611de2565b610fd582611de5565b9392505050565b600080600080610feb85611113565b9150915073__$a7f515f87d6f6cd1e35111d553ac002116$__63bb8c256a888885856040518563ffffffff1660e01b815260040161102c9493929190613502565b6040805180830381865af4158015611048573d6000803e3d6000fd5b505050506040513d601f19601f8201168201806040525081019061106c9190613547565b935093505050935093915050565b7f000000000000000000000000000000000000000000000000000000000000000081565b60008073ffffffffffffffffffffffffffffffffffffffff84846040516020016110c99291906135a8565b6040516020818303038152906040528051906020012060001c1690508091505092915050565b7f000000000000000000000000000000000000000000000000000000000000000081565b60008073__$a7f515f87d6f6cd1e35111d553ac002116$__638081a1e77f00000000000000000000000000000000000000000000000000000000000000007f0000000000000000000000000000000000000000000000000000000000000000866040518463ffffffff1660e01b8152600401611191939291906135d4565b6040805180830381865af41580156111ad573d6000803e3d6000fd5b505050506040513d601f19601f820116820180604052508101906111d19190613547565b91509150915091565b60007f0000000000000000000000000000000000000000000000000000000000000000905090565b7f000000000000000000000000000000000000000000000000000000000000000081565b7f000000000000000000000000000000000000000000000000000000000000000081565b7f000000000000000000000000000000000000000000000000000000000000000081565b60006112786111da565b73ffffffffffffffffffffffffffffffffffffffff166335567e1a3060006040518363ffffffff1660e01b81526004016112b392919061366a565b602060405180830381865afa1580156112d0573d6000803e3d6000fd5b505050506040513d601f19601f820116820180604052508101906112f49190612fa9565b905090565b6000611305858561109e565b905060008060008373ffffffffffffffffffffffffffffffffffffffff1673ffffffffffffffffffffffffffffffffffffffff168152602001908152602001600020600201541461138b576040517f08c379a000000000000000000000000000000000000000000000000000000000815260040161138290612d29565b60405180910390fd5b4282116113cd576040517f08c379a00000000000000000000000000000000000000000000000000000000081526004016113c490612dbb565b60405180910390fd5b60003411611410576040517f08c379a0000000000000000000000000000000000000000000000000000000008152600401611407906136df565b60405180910390fd5b60006040518060a001604052808481526020017f000000000000000000000000000000000000000000000000000000000000000073ffffffffffffffffffffffffffffffffffffffff1681526020013481526020013373ffffffffffffffffffffffffffffffffffffffff1681526020018573ffffffffffffffffffffffffffffffffffffffff168152509050806000808473ffffffffffffffffffffffffffffffffffffffff1673ffffffffffffffffffffffffffffffffffffffff1681526020019081526020016000206000820151816000015560208201518160010160006101000a81548173ffffffffffffffffffffffffffffffffffffffff021916908373ffffffffffffffffffffffffffffffffffffffff1602179055506040820151816002015560608201518160030160006101000a81548173ffffffffffffffffffffffffffffffffffffffff021916908373ffffffffffffffffffffffffffffffffffffffff16021790555060808201518160040160006101000a81548173ffffffffffffffffffffffffffffffffffffffff021916908373ffffffffffffffffffffffffffffffffffffffff1602179055509050508173ffffffffffffffffffffffffffffffffffffffff167fece7583a70a505ef0e36d4dec768f5ae597713e09c26011022599ee01abdabfc60405160405180910390a2505050505050565b600080600160007f00000000000000000000000000000000000000000000000000000000000000007f000000000000000000000000000000000000000000000000000000000000000060001b7f00000000000000000000000000000000000000000000000000000000000000008061168e5761168d6136ff565b5b7f0000000000000000000000000000000000000000000000000000000000000000880960001b604051600081526020016040526040516116d1949392919061377b565b6020604051602081039080840390855afa1580156116f3573d6000803e3d6000fd5b50505060206040510351905080915050919050565b6117106118fc565b426000808573ffffffffffffffffffffffffffffffffffffffff1673ffffffffffffffffffffffffffffffffffffffff168152602001908152602001600020600001541115611768576117638383611e81565b611772565b611771836122a5565b5b505050565b60008060008473ffffffffffffffffffffffffffffffffffffffff1673ffffffffffffffffffffffffffffffffffffffff16815260200190815260200160002060020154116117fb576040517f08c379a00000000000000000000000000000000000000000000000000000000081526004016117f29061338f565b60405180910390fd5b426000808473ffffffffffffffffffffffffffffffffffffffff1673ffffffffffffffffffffffffffffffffffffffff1681526020019081526020016000206000015411156118c9578173ffffffffffffffffffffffffffffffffffffffff1661186482611613565b73ffffffffffffffffffffffffffffffffffffffff16146118ba576040517f08c379a00000000000000000000000000000000000000000000000000000000081526004016118b1906134d3565b60405180910390fd5b6118c48282611e81565b6118d3565b6118d2826122a5565b5b5050565b600080826080015183606001518460400151010190508260c001518102915050919050565b6119046111da565b73ffffffffffffffffffffffffffffffffffffffff163373ffffffffffffffffffffffffffffffffffffffff1614611971576040517f08c379a00000000000000000000000000000000000000000000000000000000081526004016119689061380c565b60405180910390fd5b565b6000808380606001906119869190613159565b600090600492611998939291906131c6565b906119a39190613219565b905060008480606001906119b79190613159565b6004906024926119c9939291906131c6565b906119d49190613278565b60001c905060008580606001906119eb9190613159565b6024906044926119fd939291906131c6565b90611a089190613278565b60001c90506000868060600190611a1f9190613159565b604490606492611a31939291906131c6565b90611a3c9190613278565b60001c90507f00000000000000000000000000000000000000000000000000000000000000007bffffffffffffffffffffffffffffffffffffffffffffffffffffffff1916847bffffffffffffffffffffffffffffffffffffffffffffffffffffffff191614611ab3576001945050505050611ddc565b60008060008573ffffffffffffffffffffffffffffffffffffffff1673ffffffffffffffffffffffffffffffffffffffff1681526020019081526020016000206040518060a0016040529081600082015481526020016001820160009054906101000a900473ffffffffffffffffffffffffffffffffffffffff1673ffffffffffffffffffffffffffffffffffffffff1673ffffffffffffffffffffffffffffffffffffffff168152602001600282015481526020016003820160009054906101000a900473ffffffffffffffffffffffffffffffffffffffff1673ffffffffffffffffffffffffffffffffffffffff1673ffffffffffffffffffffffffffffffffffffffff1681526020016004820160009054906101000a900473ffffffffffffffffffffffffffffffffffffffff1673ffffffffffffffffffffffffffffffffffffffff1673ffffffffffffffffffffffffffffffffffffffff1681525050905060008060008673ffffffffffffffffffffffffffffffffffffffff1673ffffffffffffffffffffffffffffffffffffffff1681526020019081526020016000206002015403611c6d57600195505050505050611ddc565b7f000000000000000000000000000000000000000000000000000000000000000073ffffffffffffffffffffffffffffffffffffffff16816020015173ffffffffffffffffffffffffffffffffffffffff1614611cd257600195505050505050611ddc565b60006040518061010001604052808a6000016020810190611cf391906126eb565b73ffffffffffffffffffffffffffffffffffffffff1681526020018a6020013581526020018a6080013581526020018a60a0013581526020018a60c001358152602001600073ffffffffffffffffffffffffffffffffffffffff1681526020018a60e0013581526020018a61010001358152509050611d71816118d7565b831015611d875760019650505050505050611ddc565b8473ffffffffffffffffffffffffffffffffffffffff16611da785611613565b73ffffffffffffffffffffffffffffffffffffffff1614611dd15760019650505050505050611ddc565b600096505050505050505b92915050565b50565b60008114611e7e5760003373ffffffffffffffffffffffffffffffffffffffff16827fffffffffffffffffffffffffffffffffffffffffffffffffffffffffffffffff90604051611e359061385d565b600060405180830381858888f193505050503d8060008114611e73576040519150601f19603f3d011682016040523d82523d6000602084013e611e78565b606091505b50509050505b50565b60008060008473ffffffffffffffffffffffffffffffffffffffff1673ffffffffffffffffffffffffffffffffffffffff1681526020019081526020016000206040518060a0016040529081600082015481526020016001820160009054906101000a900473ffffffffffffffffffffffffffffffffffffffff1673ffffffffffffffffffffffffffffffffffffffff1673ffffffffffffffffffffffffffffffffffffffff168152602001600282015481526020016003820160009054906101000a900473ffffffffffffffffffffffffffffffffffffffff1673ffffffffffffffffffffffffffffffffffffffff1673ffffffffffffffffffffffffffffffffffffffff1681526020016004820160009054906101000a900473ffffffffffffffffffffffffffffffffffffffff1673ffffffffffffffffffffffffffffffffffffffff1673ffffffffffffffffffffffffffffffffffffffff168152505090506000808473ffffffffffffffffffffffffffffffffffffffff1673ffffffffffffffffffffffffffffffffffffffff1681526020019081526020016000206000808201600090556001820160006101000a81549073ffffffffffffffffffffffffffffffffffffffff021916905560028201600090556003820160006101000a81549073ffffffffffffffffffffffffffffffffffffffff02191690556004820160006101000a81549073ffffffffffffffffffffffffffffffffffffffff021916905550507f000000000000000000000000000000000000000000000000000000000000000073ffffffffffffffffffffffffffffffffffffffff16816020015173ffffffffffffffffffffffffffffffffffffffff160361217e57600080826080015173ffffffffffffffffffffffffffffffffffffffff1683604001516040516121309061385d565b60006040518083038185875af1925050503d806000811461216d576040519150601f19603f3d011682016040523d82523d6000602084013e612172565b606091505b5091509150505061225c565b60003410156121c2576040517f08c379a00000000000000000000000000000000000000000000000000000000081526004016121b9906138be565b60405180910390fd5b6000816020015190508073ffffffffffffffffffffffffffffffffffffffff1663a9059cbb836080015184604001516040518363ffffffff1660e01b815260040161220e9291906138ff565b6020604051808303816000875af115801561222d573d6000803e3d6000fd5b505050506040513d601f19601f8201168201806040525081019061225191906130b1565b61225a57600080fd5b505b818373ffffffffffffffffffffffffffffffffffffffff167f684222b0069d4a2e5e0d986611cc5182d543904c4e4264bf770d4e51faefc82260405160405180910390a3505050565b60008060008373ffffffffffffffffffffffffffffffffffffffff1673ffffffffffffffffffffffffffffffffffffffff1681526020019081526020016000206040518060a0016040529081600082015481526020016001820160009054906101000a900473ffffffffffffffffffffffffffffffffffffffff1673ffffffffffffffffffffffffffffffffffffffff1673ffffffffffffffffffffffffffffffffffffffff168152602001600282015481526020016003820160009054906101000a900473ffffffffffffffffffffffffffffffffffffffff1673ffffffffffffffffffffffffffffffffffffffff1673ffffffffffffffffffffffffffffffffffffffff1681526020016004820160009054906101000a900473ffffffffffffffffffffffffffffffffffffffff1673ffffffffffffffffffffffffffffffffffffffff1673ffffffffffffffffffffffffffffffffffffffff168152505090506000808373ffffffffffffffffffffffffffffffffffffffff1673ffffffffffffffffffffffffffffffffffffffff1681526020019081526020016000206000808201600090556001820160006101000a81549073ffffffffffffffffffffffffffffffffffffffff021916905560028201600090556003820160006101000a81549073ffffffffffffffffffffffffffffffffffffffff02191690556004820160006101000a81549073ffffffffffffffffffffffffffffffffffffffff021916905550507f000000000000000000000000000000000000000000000000000000000000000073ffffffffffffffffffffffffffffffffffffffff16816020015173ffffffffffffffffffffffffffffffffffffffff16036125a257600080826060015173ffffffffffffffffffffffffffffffffffffffff1683604001516040516125549061385d565b60006040518083038185875af1925050503d8060008114612591576040519150601f19603f3d011682016040523d82523d6000602084013e612596565b606091505b5091509150505061263c565b6000816020015190508073ffffffffffffffffffffffffffffffffffffffff1663a9059cbb836060015184604001516040518363ffffffff1660e01b81526004016125ee9291906138ff565b6020604051808303816000875af115801561260d573d6000803e3d6000fd5b505050506040513d601f19601f8201168201806040525081019061263191906130b1565b61263a57600080fd5b505b8173ffffffffffffffffffffffffffffffffffffffff167f0c36ba37282164e86020ce85f921bc1614b495edb4d3925de9b5b55f2c1bce4a60405160405180910390a25050565b600080fd5b600080fd5b600073ffffffffffffffffffffffffffffffffffffffff82169050919050565b60006126b88261268d565b9050919050565b6126c8816126ad565b81146126d357600080fd5b50565b6000813590506126e5816126bf565b92915050565b60006020828403121561270157612700612683565b5b600061270f848285016126d6565b91505092915050565b6000819050919050565b61272b81612718565b82525050565b61273a816126ad565b82525050565b600061274b8261268d565b9050919050565b61275b81612740565b82525050565b600060a0820190506127766000830188612722565b6127836020830187612731565b6127906040830186612722565b61279d6060830185612752565b6127aa6080830184612752565b9695505050505050565b6127bd81612718565b81146127c857600080fd5b50565b6000813590506127da816127b4565b92915050565b6127e981612740565b81146127f457600080fd5b50565b600081359050612806816127e0565b92915050565b60008060008060008060c0878903121561282957612828612683565b5b600061283789828a016127cb565b965050602061284889828a016127cb565b955050604061285989828a016127f7565b945050606061286a89828a016127cb565b935050608061287b89828a016126d6565b92505060a061288c89828a016127cb565b9150509295509295509295565b60006020820190506128ae6000830184612722565b92915050565b600080fd5b600061016082840312156128d0576128cf6128b4565b5b81905092915050565b6000602082840312156128ef576128ee612683565b5b600082013567ffffffffffffffff81111561290d5761290c612688565b5b612919848285016128b9565b91505092915050565b6000819050919050565b61293581612922565b811461294057600080fd5b50565b6000813590506129528161292c565b92915050565b60008060006060848603121561297157612970612683565b5b600084013567ffffffffffffffff81111561298f5761298e612688565b5b61299b868287016128b9565b93505060206129ac86828701612943565b92505060406129bd868287016127cb565b9150509250925092565b6000806000606084860312156129e0576129df612683565b5b60006129ee868287016127cb565b93505060206129ff868287016127cb565b9250506040612a10868287016127cb565b9150509250925092565b6000604082019050612a2f6000830185612722565b612a3c6020830184612722565b9392505050565b60007fffffffff0000000000000000000000000000000000000000000000000000000082169050919050565b612a7881612a43565b82525050565b6000602082019050612a936000830184612a6f565b92915050565b60008060408385031215612ab057612aaf612683565b5b6000612abe858286016127cb565b9250506020612acf858286016127cb565b9150509250929050565b6000602082019050612aee6000830184612731565b92915050565b600060208284031215612b0a57612b09612683565b5b6000612b18848285016127cb565b91505092915050565b6000819050919050565b6000612b46612b41612b3c8461268d565b612b21565b61268d565b9050919050565b6000612b5882612b2b565b9050919050565b6000612b6a82612b4d565b9050919050565b612b7a81612b5f565b82525050565b6000602082019050612b956000830184612b71565b92915050565b600060ff82169050919050565b612bb181612b9b565b82525050565b6000602082019050612bcc6000830184612ba8565b92915050565b60008060008060808587031215612bec57612beb612683565b5b6000612bfa878288016127cb565b9450506020612c0b878288016127cb565b9350506040612c1c878288016127f7565b9250506060612c2d878288016127cb565b91505092959194509250565b600080600060608486031215612c5257612c51612683565b5b6000612c60868287016126d6565b9350506020612c71868287016127cb565b9250506040612c82868287016127cb565b9150509250925092565b60008060408385031215612ca357612ca2612683565b5b6000612cb1858286016126d6565b9250506020612cc2858286016127cb565b9150509250929050565b600082825260208201905092915050565b7f5377617020686173206265656e20616c7265616479206f70656e65642e000000600082015250565b6000612d13601d83612ccc565b9150612d1e82612cdd565b602082019050919050565b60006020820190508181036000830152612d4281612d06565b9050919050565b7f54696d656c6f636b2076616c7565206d75737420626520696e2074686520667560008201527f747572652e000000000000000000000000000000000000000000000000000000602082015250565b6000612da5602583612ccc565b9150612db082612d49565b604082019050919050565b60006020820190508181036000830152612dd481612d98565b9050919050565b7f5468652061646472657373206973206e6f7420612076616c696420455243323060008201527f20746f6b656e2e00000000000000000000000000000000000000000000000000602082015250565b6000612e37602783612ccc565b9150612e4282612ddb565b604082019050919050565b60006020820190508181036000830152612e6681612e2a565b9050919050565b7f43616e6e6f742073656e6420455448207768656e207377617070696e6720616e60008201527f20455243323020746f6b656e2e00000000000000000000000000000000000000602082015250565b6000612ec9602d83612ccc565b9150612ed482612e6d565b604082019050919050565b60006020820190508181036000830152612ef881612ebc565b9050919050565b7f56616c7565206d757374206265206c6172676572207468616e20302e00000000600082015250565b6000612f35601c83612ccc565b9150612f4082612eff565b602082019050919050565b60006020820190508181036000830152612f6481612f28565b9050919050565b6000604082019050612f806000830185612731565b612f8d6020830184612731565b9392505050565b600081519050612fa3816127b4565b92915050565b600060208284031215612fbf57612fbe612683565b5b6000612fcd84828501612f94565b91505092915050565b7f4e6f7420656e6f7567682062616c616e63652e00000000000000000000000000600082015250565b600061300c601383612ccc565b915061301782612fd6565b602082019050919050565b6000602082019050818103600083015261303b81612fff565b9050919050565b60006060820190506130576000830186612731565b6130646020830185612731565b6130716040830184612722565b949350505050565b60008115159050919050565b61308e81613079565b811461309957600080fd5b50565b6000815190506130ab81613085565b92915050565b6000602082840312156130c7576130c6612683565b5b60006130d58482850161309c565b91505092915050565b7f5472616e73666572206661696c65642e00000000000000000000000000000000600082015250565b6000613114601083612ccc565b915061311f826130de565b602082019050919050565b6000602082019050818103600083015261314381613107565b9050919050565b600080fd5b600080fd5b600080fd5b600080833560016020038436030381126131765761317561314a565b5b80840192508235915067ffffffffffffffff8211156131985761319761314f565b5b6020830192506001820236038313156131b4576131b3613154565b5b509250929050565b600080fd5b600080fd5b600080858511156131da576131d96131bc565b5b838611156131eb576131ea6131c1565b5b6001850283019150848603905094509492505050565b600082905092915050565b600082821b905092915050565b60006132258383613201565b826132308135612a43565b925060048210156132705761326b7fffffffff000000000000000000000000000000000000000000000000000000008360040360080261320c565b831692505b505092915050565b60006132848383613201565b8261328f8135612922565b925060208210156132cf576132ca7fffffffffffffffffffffffffffffffffffffffffffffffffffffffffffffffff8360200360080261320c565b831692505b505092915050565b7f496e76616c69642073656c6563746f722e000000000000000000000000000000600082015250565b600061330d601183612ccc565b9150613318826132d7565b602082019050919050565b6000602082019050818103600083015261333c81613300565b9050919050565b7f5377617020686173206e6f74206265656e206f70656e65642e00000000000000600082015250565b6000613379601983612ccc565b915061338482613343565b602082019050919050565b600060208201905081810360008301526133a88161336c565b9050919050565b7f546f6b656e20636f6e7472616374206973206e6f74204554482e000000000000600082015250565b60006133e5601a83612ccc565b91506133f0826133af565b602082019050919050565b60006020820190508181036000830152613414816133d8565b9050919050565b7f496e73756666696369656e742070726566756e642e0000000000000000000000600082015250565b6000613451601583612ccc565b915061345c8261341b565b602082019050919050565b6000602082019050818103600083015261348081613444565b9050919050565b7f566572696669636174696f6e206661696c65642e000000000000000000000000600082015250565b60006134bd601483612ccc565b91506134c882613487565b602082019050919050565b600060208201905081810360008301526134ec816134b0565b9050919050565b6134fc81612718565b82525050565b600060808201905061351760008301876134f3565b61352460208301866134f3565b61353160408301856134f3565b61353e60608301846134f3565b95945050505050565b6000806040838503121561355e5761355d612683565b5b600061356c85828601612f94565b925050602061357d85828601612f94565b9150509250929050565b6000819050919050565b6135a261359d82612718565b613587565b82525050565b60006135b48285613591565b6020820191506135c48284613591565b6020820191508190509392505050565b60006060820190506135e960008301866134f3565b6135f660208301856134f3565b61360360408301846134f3565b949350505050565b6000819050919050565b600077ffffffffffffffffffffffffffffffffffffffffffffffff82169050919050565b600061365461364f61364a8461360b565b612b21565b613615565b9050919050565b61366481613639565b82525050565b600060408201905061367f6000830185612731565b61368c602083018461365b565b9392505050565b7f496e76616c6964206d6573736167652076616c75652e00000000000000000000600082015250565b60006136c9601683612ccc565b91506136d482613693565b602082019050919050565b600060208201905081810360008301526136f8816136bc565b9050919050565b7f4e487b7100000000000000000000000000000000000000000000000000000000600052601260045260246000fd5b60008160001b9050919050565b600061375661375161374c8461360b565b61372e565b612922565b9050919050565b6137668161373b565b82525050565b61377581612922565b82525050565b6000608082019050613790600083018761375d565b61379d6020830186612ba8565b6137aa604083018561376c565b6137b7606083018461376c565b95945050505050565b7f6163636f756e743a206e6f742066726f6d20456e747279506f696e7400000000600082015250565b60006137f6601c83612ccc565b9150613801826137c0565b602082019050919050565b60006020820190508181036000830152613825816137e9565b9050919050565b600081905092915050565b50565b600061384760008361382c565b915061385282613837565b600082019050919050565b60006138688261383a565b9150819050919050565b7f496e73756666696369656e74206665652e000000000000000000000000000000600082015250565b60006138a8601183612ccc565b91506138b382613872565b602082019050919050565b600060208201905081810360008301526138d78161389b565b9050919050565b60006138e982612b4d565b9050919050565b6138f9816138de565b82525050565b600060408201905061391460008301856138f0565b6139216020830184612722565b939250505056fea26469706673582212200096a7c62d27c5381b2e0056fc50c231aeda9fc127a43b9006b9489e6bbc24fb64736f6c63430008120033",
  "linkReferences": {
    "contracts/ECCUtils.sol": {
      "ECCUtils": [
        {
          "length": 20,
          "start": 4847
        },
        {
          "length": 20,
          "start": 5142
        }
      ]
    }
  },
  "deployedLinkReferences": {
    "contracts/ECCUtils.sol": {
      "ECCUtils": [
        {
          "length": 20,
          "start": 4081
        },
        {
          "length": 20,
          "start": 4376
        }
      ]
    }
  }
}