{
  "_format": "hh-sol-artifact-1",
  "contractName": "AtomicCloak",
  "sourceName": "contracts/AtomicCloak.sol",
  "abi": [
    {
      "inputs": [
        {
          "internalType": "address",
          "name": "__entryPoint",
          "type": "address"
        }
      ],
      "stateMutability": "nonpayable",
      "type": "constructor"
    },
    {
      "anonymous": false,
      "inputs": [
        {
          "indexed": true,
          "internalType": "address",
          "name": "_swapID",
          "type": "address"
        },
        {
          "indexed": true,
          "internalType": "uint256",
          "name": "_secretKey",
          "type": "uint256"
        }
      ],
      "name": "Close",
      "type": "event"
    },
    {
      "anonymous": false,
      "inputs": [
        {
          "indexed": true,
          "internalType": "address",
          "name": "_swapID",
          "type": "address"
        }
      ],
      "name": "Expire",
      "type": "event"
    },
    {
      "anonymous": false,
      "inputs": [
        {
          "indexed": true,
          "internalType": "address",
          "name": "_swapID",
          "type": "address"
        }
      ],
      "name": "Open",
      "type": "event"
    },
    {
      "inputs": [
        {
          "internalType": "address",
          "name": "_swapID",
          "type": "address"
        },
        {
          "internalType": "uint256",
          "name": "_secretKey",
          "type": "uint256"
        }
      ],
      "name": "closeNoVerify",
      "outputs": [],
      "stateMutability": "nonpayable",
      "type": "function"
    },
    {
      "inputs": [
        {
          "internalType": "address",
          "name": "_swapID",
          "type": "address"
        },
        {
          "internalType": "uint256",
          "name": "_secretKey",
          "type": "uint256"
        }
      ],
      "name": "closeSwap",
      "outputs": [],
      "stateMutability": "payable",
      "type": "function"
    },
    {
      "inputs": [
        {
          "internalType": "uint256",
          "name": "_secretKey",
          "type": "uint256"
        }
      ],
      "name": "commitmentFromSecret",
      "outputs": [
        {
          "internalType": "uint256",
          "name": "",
          "type": "uint256"
        },
        {
          "internalType": "uint256",
          "name": "",
          "type": "uint256"
        }
      ],
      "stateMutability": "pure",
      "type": "function"
    },
    {
      "inputs": [
        {
          "internalType": "uint256",
          "name": "_qx",
          "type": "uint256"
        },
        {
          "internalType": "uint256",
          "name": "_qy",
          "type": "uint256"
        },
        {
          "internalType": "uint256",
          "name": "_sharedSecret",
          "type": "uint256"
        }
      ],
      "name": "commitmentFromSharedSecret",
      "outputs": [
        {
          "internalType": "uint256",
          "name": "",
          "type": "uint256"
        },
        {
          "internalType": "uint256",
          "name": "",
          "type": "uint256"
        }
      ],
      "stateMutability": "pure",
      "type": "function"
    },
    {
      "inputs": [
        {
          "internalType": "uint256",
          "name": "_qx",
          "type": "uint256"
        },
        {
          "internalType": "uint256",
          "name": "_qy",
          "type": "uint256"
        }
      ],
      "name": "commitmentToAddress",
      "outputs": [
        {
          "internalType": "address",
          "name": "",
          "type": "address"
        }
      ],
      "stateMutability": "pure",
      "type": "function"
    },
    {
      "inputs": [],
      "name": "curveOrder",
      "outputs": [
        {
          "internalType": "uint256",
          "name": "",
          "type": "uint256"
        }
      ],
      "stateMutability": "view",
      "type": "function"
    },
    {
      "inputs": [],
      "name": "entryPoint",
      "outputs": [
        {
          "internalType": "contract IEntryPoint",
          "name": "",
          "type": "address"
        }
      ],
      "stateMutability": "view",
      "type": "function"
    },
    {
      "inputs": [
        {
          "internalType": "uint256",
          "name": "_secretKey",
          "type": "uint256"
        }
      ],
      "name": "getHashedCommitment",
      "outputs": [
        {
          "internalType": "address",
          "name": "",
          "type": "address"
        }
      ],
      "stateMutability": "pure",
      "type": "function"
    },
    {
      "inputs": [],
      "name": "getNonce",
      "outputs": [
        {
          "internalType": "uint256",
          "name": "",
          "type": "uint256"
        }
      ],
      "stateMutability": "view",
      "type": "function"
    },
    {
      "inputs": [],
      "name": "gx",
      "outputs": [
        {
          "internalType": "uint256",
          "name": "",
          "type": "uint256"
        }
      ],
      "stateMutability": "view",
      "type": "function"
    },
    {
      "inputs": [],
      "name": "gy",
      "outputs": [
        {
          "internalType": "uint256",
          "name": "",
          "type": "uint256"
        }
      ],
      "stateMutability": "view",
      "type": "function"
    },
    {
      "inputs": [],
      "name": "gyParity",
      "outputs": [
        {
          "internalType": "uint8",
          "name": "",
          "type": "uint8"
        }
      ],
      "stateMutability": "view",
      "type": "function"
    },
    {
      "inputs": [
        {
          "internalType": "uint256",
          "name": "_qx",
          "type": "uint256"
        },
        {
          "internalType": "uint256",
          "name": "_qy",
          "type": "uint256"
        },
        {
          "internalType": "address payable",
          "name": "_recipient",
          "type": "address"
        },
        {
          "internalType": "uint256",
          "name": "_timelock",
          "type": "uint256"
        },
        {
          "internalType": "address",
          "name": "_tokenAddress",
          "type": "address"
        },
        {
          "internalType": "uint256",
          "name": "_value",
          "type": "uint256"
        }
      ],
      "name": "openERC20Swap",
      "outputs": [],
      "stateMutability": "payable",
      "type": "function"
    },
    {
      "inputs": [
        {
          "internalType": "uint256",
          "name": "_qx",
          "type": "uint256"
        },
        {
          "internalType": "uint256",
          "name": "_qy",
          "type": "uint256"
        },
        {
          "internalType": "address payable",
          "name": "_recipient",
          "type": "address"
        },
        {
          "internalType": "uint256",
          "name": "_timelock",
          "type": "uint256"
        }
      ],
      "name": "openETHSwap",
      "outputs": [],
      "stateMutability": "payable",
      "type": "function"
    },
    {
      "inputs": [
        {
          "internalType": "address",
          "name": "_swapID",
          "type": "address"
        }
      ],
      "name": "redeemExpiredSwap",
      "outputs": [],
      "stateMutability": "nonpayable",
      "type": "function"
    },
    {
      "inputs": [
        {
          "internalType": "address",
          "name": "",
          "type": "address"
        }
      ],
      "name": "swaps",
      "outputs": [
        {
          "internalType": "uint256",
          "name": "timelock",
          "type": "uint256"
        },
        {
          "internalType": "address",
          "name": "tokenContract",
          "type": "address"
        },
        {
          "internalType": "uint256",
          "name": "value",
          "type": "uint256"
        },
        {
          "internalType": "address payable",
          "name": "sender",
          "type": "address"
        },
        {
          "internalType": "address payable",
          "name": "recipient",
          "type": "address"
        },
        {
          "internalType": "uint256",
          "name": "fee",
          "type": "uint256"
        }
      ],
      "stateMutability": "view",
      "type": "function"
    },
    {
      "inputs": [
        {
          "components": [
            {
              "internalType": "address",
              "name": "sender",
              "type": "address"
            },
            {
              "internalType": "uint256",
              "name": "nonce",
              "type": "uint256"
            },
            {
              "internalType": "bytes",
              "name": "initCode",
              "type": "bytes"
            },
            {
              "internalType": "bytes",
              "name": "callData",
              "type": "bytes"
            },
            {
              "internalType": "uint256",
              "name": "callGasLimit",
              "type": "uint256"
            },
            {
              "internalType": "uint256",
              "name": "verificationGasLimit",
              "type": "uint256"
            },
            {
              "internalType": "uint256",
              "name": "preVerificationGas",
              "type": "uint256"
            },
            {
              "internalType": "uint256",
              "name": "maxFeePerGas",
              "type": "uint256"
            },
            {
              "internalType": "uint256",
              "name": "maxPriorityFeePerGas",
              "type": "uint256"
            },
            {
              "internalType": "bytes",
              "name": "paymasterAndData",
              "type": "bytes"
            },
            {
              "internalType": "bytes",
              "name": "signature",
              "type": "bytes"
            }
          ],
          "internalType": "struct UserOperation",
          "name": "userOp",
          "type": "tuple"
        }
      ],
      "name": "validateSignature_test",
      "outputs": [],
      "stateMutability": "view",
      "type": "function"
    },
    {
      "inputs": [
        {
          "components": [
            {
              "internalType": "address",
              "name": "sender",
              "type": "address"
            },
            {
              "internalType": "uint256",
              "name": "nonce",
              "type": "uint256"
            },
            {
              "internalType": "bytes",
              "name": "initCode",
              "type": "bytes"
            },
            {
              "internalType": "bytes",
              "name": "callData",
              "type": "bytes"
            },
            {
              "internalType": "uint256",
              "name": "callGasLimit",
              "type": "uint256"
            },
            {
              "internalType": "uint256",
              "name": "verificationGasLimit",
              "type": "uint256"
            },
            {
              "internalType": "uint256",
              "name": "preVerificationGas",
              "type": "uint256"
            },
            {
              "internalType": "uint256",
              "name": "maxFeePerGas",
              "type": "uint256"
            },
            {
              "internalType": "uint256",
              "name": "maxPriorityFeePerGas",
              "type": "uint256"
            },
            {
              "internalType": "bytes",
              "name": "paymasterAndData",
              "type": "bytes"
            },
            {
              "internalType": "bytes",
              "name": "signature",
              "type": "bytes"
            }
          ],
          "internalType": "struct UserOperation",
          "name": "userOp",
          "type": "tuple"
        },
        {
          "internalType": "bytes32",
          "name": "userOpHash",
          "type": "bytes32"
        },
        {
          "internalType": "uint256",
          "name": "missingAccountFunds",
          "type": "uint256"
        }
      ],
      "name": "validateUserOp",
      "outputs": [
        {
          "internalType": "uint256",
          "name": "validationData",
          "type": "uint256"
        }
      ],
      "stateMutability": "nonpayable",
      "type": "function"
    },
    {
      "stateMutability": "payable",
      "type": "receive"
    }
  ],
  "bytecode": "0x610160604052600073ffffffffffffffffffffffffffffffffffffffff1660a09073ffffffffffffffffffffffffffffffffffffffff1681525063685da72760e01b7bffffffffffffffffffffffffffffffffffffffffffffffffffffffff191660c0907bffffffffffffffffffffffffffffffffffffffffffffffffffffffff19168152507fa6ecb3f599964fe04c72e486a8f90172493c21f4185f1ab9a7fe05659480c54860e0908152507fdf67fd3f4255826c234a5262adc70e14a6d42f13ee55b65e885e666e1dd5d3f561010090815250601c60ff166101209060ff168152507ffffffffffffffffffffffffffffffffebaaedce6af48a03bbfd25e8cd0364141610140908152503480156200011857600080fd5b5060405162003eac38038062003eac83398181016040528101906200013e9190620001e3565b8073ffffffffffffffffffffffffffffffffffffffff1660808173ffffffffffffffffffffffffffffffffffffffff16815250505062000215565b600080fd5b600073ffffffffffffffffffffffffffffffffffffffff82169050919050565b6000620001ab826200017e565b9050919050565b620001bd816200019e565b8114620001c957600080fd5b50565b600081519050620001dd81620001b2565b92915050565b600060208284031215620001fc57620001fb62000179565b5b60006200020c84828501620001cc565b91505092915050565b60805160a05160c05160e051610100516101205161014051613be8620002c460003960008181610aab0152611d850152600081816118660152611d40015260008181610a8701526118c8015260008181610461015281816118a701528181611d610152611db4015260008181610b6801526125210152600081816105f501528181610df90152818161127e01528181611b33015281816121e60152612755015260006119530152613be86000f3fe60806040526004361061010d5760003560e01c8063685da72711610095578063b0d691fe11610064578063b0d691fe14610394578063d087d288146103bf578063d9a3d893146103ea578063df87326414610406578063ec65dfa41461044357610114565b8063685da727146102c5578063888396d1146102ee5780639840f5441461032b5780639fc4c8301461035657610114565b8063307c0839116100dc578063307c0839146101cd57806338f05f60146101f85780633a871cdd1461022157806358f6956b1461025e57806365f1baf31461028757610114565b806306c91ce3146101195780631688cf54146101445780632cca2cb0146101865780632d58c9a2146101a257610114565b3661011457005b600080fd5b34801561012557600080fd5b5061012e61045f565b60405161013b91906128c6565b60405180910390f35b34801561015057600080fd5b5061016b60048036038101906101669190612949565b610483565b60405161017d969594939291906129a6565b60405180910390f35b6101a0600480360381019061019b9190612a5f565b61051f565b005b3480156101ae57600080fd5b506101b7610a85565b6040516101c491906128c6565b60405180910390f35b3480156101d957600080fd5b506101e2610aa9565b6040516101ef91906128c6565b60405180910390f35b34801561020457600080fd5b5061021f600480360381019061021a9190612b11565b610acd565b005b34801561022d57600080fd5b5061024860048036038101906102439190612b90565b610f06565b60405161025591906128c6565b60405180910390f35b34801561026a57600080fd5b5061028560048036038101906102809190612949565b610f39565b005b34801561029357600080fd5b506102ae60048036038101906102a99190612bff565b611408565b6040516102bc929190612c52565b60405180910390f35b3480156102d157600080fd5b506102ec60048036038101906102e79190612c7b565b6114a6565b005b3480156102fa57600080fd5b5061031560048036038101906103109190612cbb565b611813565b6040516103229190612cfb565b60405180910390f35b34801561033757600080fd5b50610340611864565b60405161034d9190612d32565b60405180910390f35b34801561036257600080fd5b5061037d60048036038101906103789190612d4d565b611888565b60405161038b929190612c52565b60405180910390f35b3480156103a057600080fd5b506103a961194f565b6040516103b69190612dd9565b60405180910390f35b3480156103cb57600080fd5b506103d4611977565b6040516103e191906128c6565b60405180910390f35b61040460048036038101906103ff9190612df4565b611a02565b005b34801561041257600080fd5b5061042d60048036038101906104289190612d4d565b611d37565b60405161043a9190612cfb565b60405180910390f35b61045d60048036038101906104589190612c7b565b611e2c565b005b7f000000000000000000000000000000000000000000000000000000000000000081565b60006020528060005260406000206000915090508060000154908060010160009054906101000a900473ffffffffffffffffffffffffffffffffffffffff16908060020154908060030160009054906101000a900473ffffffffffffffffffffffffffffffffffffffff16908060040160009054906101000a900473ffffffffffffffffffffffffffffffffffffffff16908060050154905086565b600061052b8787611813565b905060008060008373ffffffffffffffffffffffffffffffffffffffff1673ffffffffffffffffffffffffffffffffffffffff16815260200190815260200160002060020154146105b1576040517f08c379a00000000000000000000000000000000000000000000000000000000081526004016105a890612eb8565b60405180910390fd5b4284116105f3576040517f08c379a00000000000000000000000000000000000000000000000000000000081526004016105ea90612f4a565b60405180910390fd5b7f000000000000000000000000000000000000000000000000000000000000000073ffffffffffffffffffffffffffffffffffffffff168373ffffffffffffffffffffffffffffffffffffffff1603610681576040517f08c379a000000000000000000000000000000000000000000000000000000000815260040161067890612fdc565b60405180910390fd5b600034146106c4576040517f08c379a00000000000000000000000000000000000000000000000000000000081526004016106bb9061306e565b60405180910390fd5b60008211610707576040517f08c379a00000000000000000000000000000000000000000000000000000000081526004016106fe906130da565b60405180910390fd5b6000839050828173ffffffffffffffffffffffffffffffffffffffff1663dd62ed3e33306040518363ffffffff1660e01b81526004016107489291906130fa565b602060405180830381865afa158015610765573d6000803e3d6000fd5b505050506040513d601f19601f820116820180604052508101906107899190613138565b10156107ca576040517f08c379a00000000000000000000000000000000000000000000000000000000081526004016107c1906131b1565b60405180910390fd5b8073ffffffffffffffffffffffffffffffffffffffff166323b872dd3330866040518463ffffffff1660e01b8152600401610807939291906131d1565b6020604051808303816000875af1158015610826573d6000803e3d6000fd5b505050506040513d601f19601f8201168201806040525081019061084a9190613240565b610889576040517f08c379a0000000000000000000000000000000000000000000000000000000008152600401610880906132b9565b60405180910390fd5b60006040518060c001604052808781526020018673ffffffffffffffffffffffffffffffffffffffff1681526020018581526020013373ffffffffffffffffffffffffffffffffffffffff1681526020018873ffffffffffffffffffffffffffffffffffffffff1681526020016509184e72a0008152509050806000808573ffffffffffffffffffffffffffffffffffffffff1673ffffffffffffffffffffffffffffffffffffffff1681526020019081526020016000206000820151816000015560208201518160010160006101000a81548173ffffffffffffffffffffffffffffffffffffffff021916908373ffffffffffffffffffffffffffffffffffffffff1602179055506040820151816002015560608201518160030160006101000a81548173ffffffffffffffffffffffffffffffffffffffff021916908373ffffffffffffffffffffffffffffffffffffffff16021790555060808201518160040160006101000a81548173ffffffffffffffffffffffffffffffffffffffff021916908373ffffffffffffffffffffffffffffffffffffffff16021790555060a082015181600501559050508273ffffffffffffffffffffffffffffffffffffffff167fece7583a70a505ef0e36d4dec768f5ae597713e09c26011022599ee01abdabfc60405160405180910390a2505050505050505050565b7f000000000000000000000000000000000000000000000000000000000000000081565b7f000000000000000000000000000000000000000000000000000000000000000081565b6000818060600190610adf91906132e8565b600090600492610af193929190613355565b90610afc91906133d4565b90506000828060600190610b1091906132e8565b600490602492610b2293929190613355565b90610b2d9190613433565b60001c90506000838060600190610b4491906132e8565b602490604492610b5693929190613355565b90610b619190613433565b60001c90507f00000000000000000000000000000000000000000000000000000000000000007bffffffffffffffffffffffffffffffffffffffffffffffffffffffff1916837bffffffffffffffffffffffffffffffffffffffffffffffffffffffff191614610c06576040517f08c379a0000000000000000000000000000000000000000000000000000000008152600401610bfd906134de565b60405180910390fd5b60008060008473ffffffffffffffffffffffffffffffffffffffff1673ffffffffffffffffffffffffffffffffffffffff1681526020019081526020016000206040518060c0016040529081600082015481526020016001820160009054906101000a900473ffffffffffffffffffffffffffffffffffffffff1673ffffffffffffffffffffffffffffffffffffffff1673ffffffffffffffffffffffffffffffffffffffff168152602001600282015481526020016003820160009054906101000a900473ffffffffffffffffffffffffffffffffffffffff1673ffffffffffffffffffffffffffffffffffffffff1673ffffffffffffffffffffffffffffffffffffffff1681526020016004820160009054906101000a900473ffffffffffffffffffffffffffffffffffffffff1673ffffffffffffffffffffffffffffffffffffffff1673ffffffffffffffffffffffffffffffffffffffff168152602001600582015481525050905060008060008573ffffffffffffffffffffffffffffffffffffffff1673ffffffffffffffffffffffffffffffffffffffff1681526020019081526020016000206002015411610df7576040517f08c379a0000000000000000000000000000000000000000000000000000000008152600401610dee9061354a565b60405180910390fd5b7f000000000000000000000000000000000000000000000000000000000000000073ffffffffffffffffffffffffffffffffffffffff16816020015173ffffffffffffffffffffffffffffffffffffffff1614610e89576040517f08c379a0000000000000000000000000000000000000000000000000000000008152600401610e80906135b6565b60405180910390fd5b8273ffffffffffffffffffffffffffffffffffffffff16610ea983611d37565b73ffffffffffffffffffffffffffffffffffffffff1614610eff576040517f08c379a0000000000000000000000000000000000000000000000000000000008152600401610ef690613622565b60405180910390fd5b5050505050565b6000610f1061240e565b610f1a8484612485565b9050610f29846020013561280e565b610f3282612811565b9392505050565b60008060008373ffffffffffffffffffffffffffffffffffffffff1673ffffffffffffffffffffffffffffffffffffffff1681526020019081526020016000206002015411610fbd576040517f08c379a0000000000000000000000000000000000000000000000000000000008152600401610fb49061354a565b60405180910390fd5b426000808373ffffffffffffffffffffffffffffffffffffffff1673ffffffffffffffffffffffffffffffffffffffff168152602001908152602001600020600001541115611041576040517f08c379a00000000000000000000000000000000000000000000000000000000081526004016110389061368e565b60405180910390fd5b60008060008373ffffffffffffffffffffffffffffffffffffffff1673ffffffffffffffffffffffffffffffffffffffff1681526020019081526020016000206040518060c0016040529081600082015481526020016001820160009054906101000a900473ffffffffffffffffffffffffffffffffffffffff1673ffffffffffffffffffffffffffffffffffffffff1673ffffffffffffffffffffffffffffffffffffffff168152602001600282015481526020016003820160009054906101000a900473ffffffffffffffffffffffffffffffffffffffff1673ffffffffffffffffffffffffffffffffffffffff1673ffffffffffffffffffffffffffffffffffffffff1681526020016004820160009054906101000a900473ffffffffffffffffffffffffffffffffffffffff1673ffffffffffffffffffffffffffffffffffffffff1673ffffffffffffffffffffffffffffffffffffffff16815260200160058201548152505090506000808373ffffffffffffffffffffffffffffffffffffffff1673ffffffffffffffffffffffffffffffffffffffff1681526020019081526020016000206000808201600090556001820160006101000a81549073ffffffffffffffffffffffffffffffffffffffff021916905560028201600090556003820160006101000a81549073ffffffffffffffffffffffffffffffffffffffff02191690556004820160006101000a81549073ffffffffffffffffffffffffffffffffffffffff0219169055600582016000905550507f000000000000000000000000000000000000000000000000000000000000000073ffffffffffffffffffffffffffffffffffffffff16816020015173ffffffffffffffffffffffffffffffffffffffff160361132757806060015173ffffffffffffffffffffffffffffffffffffffff166108fc82604001519081150290604051600060405180830381858888f19350505050158015611321573d6000803e3d6000fd5b506113c1565b6000816020015190508073ffffffffffffffffffffffffffffffffffffffff1663a9059cbb836060015184604001516040518363ffffffff1660e01b81526004016113739291906136cf565b6020604051808303816000875af1158015611392573d6000803e3d6000fd5b505050506040513d601f19601f820116820180604052508101906113b69190613240565b6113bf57600080fd5b505b8173ffffffffffffffffffffffffffffffffffffffff167f0c36ba37282164e86020ce85f921bc1614b495edb4d3925de9b5b55f2c1bce4a60405160405180910390a25050565b60008060008061141785611888565b9150915073__$a7f515f87d6f6cd1e35111d553ac002116$__63bb8c256a888885856040518563ffffffff1660e01b81526004016114589493929190613707565b6040805180830381865af4158015611474573d6000803e3d6000fd5b505050506040513d601f19601f82011682018060405250810190611498919061374c565b935093505050935093915050565b426000808473ffffffffffffffffffffffffffffffffffffffff1673ffffffffffffffffffffffffffffffffffffffff1681526020019081526020016000206000015411611529576040517f08c379a0000000000000000000000000000000000000000000000000000000008152600401611520906137d8565b60405180910390fd5b61153161240e565b60008060008473ffffffffffffffffffffffffffffffffffffffff1673ffffffffffffffffffffffffffffffffffffffff1681526020019081526020016000206040518060c0016040529081600082015481526020016001820160009054906101000a900473ffffffffffffffffffffffffffffffffffffffff1673ffffffffffffffffffffffffffffffffffffffff1673ffffffffffffffffffffffffffffffffffffffff168152602001600282015481526020016003820160009054906101000a900473ffffffffffffffffffffffffffffffffffffffff1673ffffffffffffffffffffffffffffffffffffffff1673ffffffffffffffffffffffffffffffffffffffff1681526020016004820160009054906101000a900473ffffffffffffffffffffffffffffffffffffffff1673ffffffffffffffffffffffffffffffffffffffff1673ffffffffffffffffffffffffffffffffffffffff16815260200160058201548152505090506000808473ffffffffffffffffffffffffffffffffffffffff1673ffffffffffffffffffffffffffffffffffffffff1681526020019081526020016000206000808201600090556001820160006101000a81549073ffffffffffffffffffffffffffffffffffffffff021916905560028201600090556003820160006101000a81549073ffffffffffffffffffffffffffffffffffffffff02191690556004820160006101000a81549073ffffffffffffffffffffffffffffffffffffffff021916905560058201600090555050806080015173ffffffffffffffffffffffffffffffffffffffff166108fc8260a00151836040015161179e9190613827565b9081150290604051600060405180830381858888f193505050501580156117c9573d6000803e3d6000fd5b50818373ffffffffffffffffffffffffffffffffffffffff167f684222b0069d4a2e5e0d986611cc5182d543904c4e4264bf770d4e51faefc82260405160405180910390a3505050565b60008073ffffffffffffffffffffffffffffffffffffffff848460405160200161183e92919061387c565b6040516020818303038152906040528051906020012060001c1690508091505092915050565b7f000000000000000000000000000000000000000000000000000000000000000081565b60008073__$a7f515f87d6f6cd1e35111d553ac002116$__638081a1e77f00000000000000000000000000000000000000000000000000000000000000007f0000000000000000000000000000000000000000000000000000000000000000866040518463ffffffff1660e01b8152600401611906939291906138a8565b6040805180830381865af4158015611922573d6000803e3d6000fd5b505050506040513d601f19601f82011682018060405250810190611946919061374c565b91509150915091565b60007f0000000000000000000000000000000000000000000000000000000000000000905090565b600061198161194f565b73ffffffffffffffffffffffffffffffffffffffff166335567e1a3060006040518363ffffffff1660e01b81526004016119bc92919061393e565b602060405180830381865afa1580156119d9573d6000803e3d6000fd5b505050506040513d601f19601f820116820180604052508101906119fd9190613138565b905090565b6000611a0e8585611813565b905060008060008373ffffffffffffffffffffffffffffffffffffffff1673ffffffffffffffffffffffffffffffffffffffff1681526020019081526020016000206002015414611a94576040517f08c379a0000000000000000000000000000000000000000000000000000000008152600401611a8b90612eb8565b60405180910390fd5b428211611ad6576040517f08c379a0000000000000000000000000000000000000000000000000000000008152600401611acd90612f4a565b60405180910390fd5b6509184e72a0003411611b1e576040517f08c379a0000000000000000000000000000000000000000000000000000000008152600401611b15906139b3565b60405180910390fd5b60006040518060c001604052808481526020017f000000000000000000000000000000000000000000000000000000000000000073ffffffffffffffffffffffffffffffffffffffff1681526020013481526020013373ffffffffffffffffffffffffffffffffffffffff1681526020018573ffffffffffffffffffffffffffffffffffffffff1681526020016509184e72a0008152509050806000808473ffffffffffffffffffffffffffffffffffffffff1673ffffffffffffffffffffffffffffffffffffffff1681526020019081526020016000206000820151816000015560208201518160010160006101000a81548173ffffffffffffffffffffffffffffffffffffffff021916908373ffffffffffffffffffffffffffffffffffffffff1602179055506040820151816002015560608201518160030160006101000a81548173ffffffffffffffffffffffffffffffffffffffff021916908373ffffffffffffffffffffffffffffffffffffffff16021790555060808201518160040160006101000a81548173ffffffffffffffffffffffffffffffffffffffff021916908373ffffffffffffffffffffffffffffffffffffffff16021790555060a082015181600501559050508173ffffffffffffffffffffffffffffffffffffffff167fece7583a70a505ef0e36d4dec768f5ae597713e09c26011022599ee01abdabfc60405160405180910390a2505050505050565b600080600160007f00000000000000000000000000000000000000000000000000000000000000007f000000000000000000000000000000000000000000000000000000000000000060001b7f000000000000000000000000000000000000000000000000000000000000000080611db257611db16139d3565b5b7f0000000000000000000000000000000000000000000000000000000000000000880960001b60405160008152602001604052604051611df59493929190613a4f565b6020604051602081039080840390855afa158015611e17573d6000803e3d6000fd5b50505060206040510351905080915050919050565b60008060008473ffffffffffffffffffffffffffffffffffffffff1673ffffffffffffffffffffffffffffffffffffffff1681526020019081526020016000206002015411611eb0576040517f08c379a0000000000000000000000000000000000000000000000000000000008152600401611ea79061354a565b60405180910390fd5b426000808473ffffffffffffffffffffffffffffffffffffffff1673ffffffffffffffffffffffffffffffffffffffff1681526020019081526020016000206000015411611f33576040517f08c379a0000000000000000000000000000000000000000000000000000000008152600401611f2a906137d8565b60405180910390fd5b8173ffffffffffffffffffffffffffffffffffffffff16611f5382611d37565b73ffffffffffffffffffffffffffffffffffffffff1614611fa9576040517f08c379a0000000000000000000000000000000000000000000000000000000008152600401611fa090613622565b60405180910390fd5b60008060008473ffffffffffffffffffffffffffffffffffffffff1673ffffffffffffffffffffffffffffffffffffffff1681526020019081526020016000206040518060c0016040529081600082015481526020016001820160009054906101000a900473ffffffffffffffffffffffffffffffffffffffff1673ffffffffffffffffffffffffffffffffffffffff1673ffffffffffffffffffffffffffffffffffffffff168152602001600282015481526020016003820160009054906101000a900473ffffffffffffffffffffffffffffffffffffffff1673ffffffffffffffffffffffffffffffffffffffff1673ffffffffffffffffffffffffffffffffffffffff1681526020016004820160009054906101000a900473ffffffffffffffffffffffffffffffffffffffff1673ffffffffffffffffffffffffffffffffffffffff1673ffffffffffffffffffffffffffffffffffffffff16815260200160058201548152505090506000808473ffffffffffffffffffffffffffffffffffffffff1673ffffffffffffffffffffffffffffffffffffffff1681526020019081526020016000206000808201600090556001820160006101000a81549073ffffffffffffffffffffffffffffffffffffffff021916905560028201600090556003820160006101000a81549073ffffffffffffffffffffffffffffffffffffffff02191690556004820160006101000a81549073ffffffffffffffffffffffffffffffffffffffff0219169055600582016000905550507f000000000000000000000000000000000000000000000000000000000000000073ffffffffffffffffffffffffffffffffffffffff16816020015173ffffffffffffffffffffffffffffffffffffffff160361228f57806080015173ffffffffffffffffffffffffffffffffffffffff166108fc82604001519081150290604051600060405180830381858888f19350505050158015612289573d6000803e3d6000fd5b506123c5565b8060a001513410156122d6576040517f08c379a00000000000000000000000000000000000000000000000000000000081526004016122cd90613ae0565b60405180910390fd5b6000816020015190508073ffffffffffffffffffffffffffffffffffffffff1663a9059cbb836080015184604001516040518363ffffffff1660e01b81526004016123229291906136cf565b6020604051808303816000875af1158015612341573d6000803e3d6000fd5b505050506040513d601f19601f820116820180604052508101906123659190613240565b61236e57600080fd5b60003411156123c357816060015173ffffffffffffffffffffffffffffffffffffffff166108fc349081150290604051600060405180830381858888f193505050501580156123c1573d6000803e3d6000fd5b505b505b818373ffffffffffffffffffffffffffffffffffffffff167f684222b0069d4a2e5e0d986611cc5182d543904c4e4264bf770d4e51faefc82260405160405180910390a3505050565b61241661194f565b73ffffffffffffffffffffffffffffffffffffffff163373ffffffffffffffffffffffffffffffffffffffff1614612483576040517f08c379a000000000000000000000000000000000000000000000000000000000815260040161247a90613b4c565b60405180910390fd5b565b60008083806060019061249891906132e8565b6000906004926124aa93929190613355565b906124b591906133d4565b905060008480606001906124c991906132e8565b6004906024926124db93929190613355565b906124e69190613433565b60001c905060008580606001906124fd91906132e8565b60249060449261250f93929190613355565b9061251a9190613433565b60001c90507f00000000000000000000000000000000000000000000000000000000000000007bffffffffffffffffffffffffffffffffffffffffffffffffffffffff1916837bffffffffffffffffffffffffffffffffffffffffffffffffffffffff1916146125905760019350505050612808565b60008060008473ffffffffffffffffffffffffffffffffffffffff1673ffffffffffffffffffffffffffffffffffffffff1681526020019081526020016000206040518060c0016040529081600082015481526020016001820160009054906101000a900473ffffffffffffffffffffffffffffffffffffffff1673ffffffffffffffffffffffffffffffffffffffff1673ffffffffffffffffffffffffffffffffffffffff168152602001600282015481526020016003820160009054906101000a900473ffffffffffffffffffffffffffffffffffffffff1673ffffffffffffffffffffffffffffffffffffffff1673ffffffffffffffffffffffffffffffffffffffff1681526020016004820160009054906101000a900473ffffffffffffffffffffffffffffffffffffffff1673ffffffffffffffffffffffffffffffffffffffff1673ffffffffffffffffffffffffffffffffffffffff168152602001600582015481525050905060008060008573ffffffffffffffffffffffffffffffffffffffff1673ffffffffffffffffffffffffffffffffffffffff1681526020019081526020016000206002015403612753576001945050505050612808565b7f000000000000000000000000000000000000000000000000000000000000000073ffffffffffffffffffffffffffffffffffffffff16816020015173ffffffffffffffffffffffffffffffffffffffff16146127b7576001945050505050612808565b8273ffffffffffffffffffffffffffffffffffffffff166127d783611d37565b73ffffffffffffffffffffffffffffffffffffffff16146127ff576001945050505050612808565b60009450505050505b92915050565b50565b600081146128aa5760003373ffffffffffffffffffffffffffffffffffffffff16827fffffffffffffffffffffffffffffffffffffffffffffffffffffffffffffffff9060405161286190613b9d565b600060405180830381858888f193505050503d806000811461289f576040519150601f19603f3d011682016040523d82523d6000602084013e6128a4565b606091505b50509050505b50565b6000819050919050565b6128c0816128ad565b82525050565b60006020820190506128db60008301846128b7565b92915050565b600080fd5b600080fd5b600073ffffffffffffffffffffffffffffffffffffffff82169050919050565b6000612916826128eb565b9050919050565b6129268161290b565b811461293157600080fd5b50565b6000813590506129438161291d565b92915050565b60006020828403121561295f5761295e6128e1565b5b600061296d84828501612934565b91505092915050565b61297f8161290b565b82525050565b6000612990826128eb565b9050919050565b6129a081612985565b82525050565b600060c0820190506129bb60008301896128b7565b6129c86020830188612976565b6129d560408301876128b7565b6129e26060830186612997565b6129ef6080830185612997565b6129fc60a08301846128b7565b979650505050505050565b612a10816128ad565b8114612a1b57600080fd5b50565b600081359050612a2d81612a07565b92915050565b612a3c81612985565b8114612a4757600080fd5b50565b600081359050612a5981612a33565b92915050565b60008060008060008060c08789031215612a7c57612a7b6128e1565b5b6000612a8a89828a01612a1e565b9650506020612a9b89828a01612a1e565b9550506040612aac89828a01612a4a565b9450506060612abd89828a01612a1e565b9350506080612ace89828a01612934565b92505060a0612adf89828a01612a1e565b9150509295509295509295565b600080fd5b60006101608284031215612b0857612b07612aec565b5b81905092915050565b600060208284031215612b2757612b266128e1565b5b600082013567ffffffffffffffff811115612b4557612b446128e6565b5b612b5184828501612af1565b91505092915050565b6000819050919050565b612b6d81612b5a565b8114612b7857600080fd5b50565b600081359050612b8a81612b64565b92915050565b600080600060608486031215612ba957612ba86128e1565b5b600084013567ffffffffffffffff811115612bc757612bc66128e6565b5b612bd386828701612af1565b9350506020612be486828701612b7b565b9250506040612bf586828701612a1e565b9150509250925092565b600080600060608486031215612c1857612c176128e1565b5b6000612c2686828701612a1e565b9350506020612c3786828701612a1e565b9250506040612c4886828701612a1e565b9150509250925092565b6000604082019050612c6760008301856128b7565b612c7460208301846128b7565b9392505050565b60008060408385031215612c9257612c916128e1565b5b6000612ca085828601612934565b9250506020612cb185828601612a1e565b9150509250929050565b60008060408385031215612cd257612cd16128e1565b5b6000612ce085828601612a1e565b9250506020612cf185828601612a1e565b9150509250929050565b6000602082019050612d106000830184612976565b92915050565b600060ff82169050919050565b612d2c81612d16565b82525050565b6000602082019050612d476000830184612d23565b92915050565b600060208284031215612d6357612d626128e1565b5b6000612d7184828501612a1e565b91505092915050565b6000819050919050565b6000612d9f612d9a612d95846128eb565b612d7a565b6128eb565b9050919050565b6000612db182612d84565b9050919050565b6000612dc382612da6565b9050919050565b612dd381612db8565b82525050565b6000602082019050612dee6000830184612dca565b92915050565b60008060008060808587031215612e0e57612e0d6128e1565b5b6000612e1c87828801612a1e565b9450506020612e2d87828801612a1e565b9350506040612e3e87828801612a4a565b9250506060612e4f87828801612a1e565b91505092959194509250565b600082825260208201905092915050565b7f5377617020686173206265656e20616c7265616479206f70656e65642e000000600082015250565b6000612ea2601d83612e5b565b9150612ead82612e6c565b602082019050919050565b60006020820190508181036000830152612ed181612e95565b9050919050565b7f54696d656c6f636b2076616c7565206d75737420626520696e2074686520667560008201527f747572652e000000000000000000000000000000000000000000000000000000602082015250565b6000612f34602583612e5b565b9150612f3f82612ed8565b604082019050919050565b60006020820190508181036000830152612f6381612f27565b9050919050565b7f5468652061646472657373206973206e6f7420612076616c696420455243323060008201527f20746f6b656e2e00000000000000000000000000000000000000000000000000602082015250565b6000612fc6602783612e5b565b9150612fd182612f6a565b604082019050919050565b60006020820190508181036000830152612ff581612fb9565b9050919050565b7f43616e6e6f742073656e6420455448207768656e207377617070696e6720616e60008201527f20455243323020746f6b656e2e00000000000000000000000000000000000000602082015250565b6000613058602d83612e5b565b915061306382612ffc565b604082019050919050565b600060208201905081810360008301526130878161304b565b9050919050565b7f56616c7565206d757374206265206c6172676572207468616e20302e00000000600082015250565b60006130c4601c83612e5b565b91506130cf8261308e565b602082019050919050565b600060208201905081810360008301526130f3816130b7565b9050919050565b600060408201905061310f6000830185612976565b61311c6020830184612976565b9392505050565b60008151905061313281612a07565b92915050565b60006020828403121561314e5761314d6128e1565b5b600061315c84828501613123565b91505092915050565b7f4e6f7420656e6f7567682062616c616e63652e00000000000000000000000000600082015250565b600061319b601383612e5b565b91506131a682613165565b602082019050919050565b600060208201905081810360008301526131ca8161318e565b9050919050565b60006060820190506131e66000830186612976565b6131f36020830185612976565b61320060408301846128b7565b949350505050565b60008115159050919050565b61321d81613208565b811461322857600080fd5b50565b60008151905061323a81613214565b92915050565b600060208284031215613256576132556128e1565b5b60006132648482850161322b565b91505092915050565b7f5472616e73666572206661696c65642e00000000000000000000000000000000600082015250565b60006132a3601083612e5b565b91506132ae8261326d565b602082019050919050565b600060208201905081810360008301526132d281613296565b9050919050565b600080fd5b600080fd5b600080fd5b60008083356001602003843603038112613305576133046132d9565b5b80840192508235915067ffffffffffffffff821115613327576133266132de565b5b602083019250600182023603831315613343576133426132e3565b5b509250929050565b600080fd5b600080fd5b600080858511156133695761336861334b565b5b8386111561337a57613379613350565b5b6001850283019150848603905094509492505050565b600082905092915050565b60007fffffffff0000000000000000000000000000000000000000000000000000000082169050919050565b600082821b905092915050565b60006133e08383613390565b826133eb813561339b565b9250600482101561342b576134267fffffffff00000000000000000000000000000000000000000000000000000000836004036008026133c7565b831692505b505092915050565b600061343f8383613390565b8261344a8135612b5a565b9250602082101561348a576134857fffffffffffffffffffffffffffffffffffffffffffffffffffffffffffffffff836020036008026133c7565b831692505b505092915050565b7f496e76616c69642073656c6563746f722e000000000000000000000000000000600082015250565b60006134c8601183612e5b565b91506134d382613492565b602082019050919050565b600060208201905081810360008301526134f7816134bb565b9050919050565b7f5377617020686173206e6f74206265656e206f70656e65642e00000000000000600082015250565b6000613534601983612e5b565b915061353f826134fe565b602082019050919050565b6000602082019050818103600083015261356381613527565b9050919050565b7f546f6b656e20636f6e7472616374206973206e6f74204554482e000000000000600082015250565b60006135a0601a83612e5b565b91506135ab8261356a565b602082019050919050565b600060208201905081810360008301526135cf81613593565b9050919050565b7f566572696669636174696f6e206661696c65642e000000000000000000000000600082015250565b600061360c601483612e5b565b9150613617826135d6565b602082019050919050565b6000602082019050818103600083015261363b816135ff565b9050919050565b7f5377617020686173206e6f7420657870697265642e0000000000000000000000600082015250565b6000613678601583612e5b565b915061368382613642565b602082019050919050565b600060208201905081810360008301526136a78161366b565b9050919050565b60006136b982612da6565b9050919050565b6136c9816136ae565b82525050565b60006040820190506136e460008301856136c0565b6136f160208301846128b7565b9392505050565b613701816128ad565b82525050565b600060808201905061371c60008301876136f8565b61372960208301866136f8565b61373660408301856136f8565b61374360608301846136f8565b95945050505050565b60008060408385031215613763576137626128e1565b5b600061377185828601613123565b925050602061378285828601613123565b9150509250929050565b7f537761702068617320657870697265642e000000000000000000000000000000600082015250565b60006137c2601183612e5b565b91506137cd8261378c565b602082019050919050565b600060208201905081810360008301526137f1816137b5565b9050919050565b7f4e487b7100000000000000000000000000000000000000000000000000000000600052601160045260246000fd5b6000613832826128ad565b915061383d836128ad565b9250828203905081811115613855576138546137f8565b5b92915050565b6000819050919050565b613876613871826128ad565b61385b565b82525050565b60006138888285613865565b6020820191506138988284613865565b6020820191508190509392505050565b60006060820190506138bd60008301866136f8565b6138ca60208301856136f8565b6138d760408301846136f8565b949350505050565b6000819050919050565b600077ffffffffffffffffffffffffffffffffffffffffffffffff82169050919050565b600061392861392361391e846138df565b612d7a565b6138e9565b9050919050565b6139388161390d565b82525050565b60006040820190506139536000830185612976565b613960602083018461392f565b9392505050565b7f496e76616c6964206d6573736167652076616c75652e00000000000000000000600082015250565b600061399d601683612e5b565b91506139a882613967565b602082019050919050565b600060208201905081810360008301526139cc81613990565b9050919050565b7f4e487b7100000000000000000000000000000000000000000000000000000000600052601260045260246000fd5b60008160001b9050919050565b6000613a2a613a25613a20846138df565b613a02565b612b5a565b9050919050565b613a3a81613a0f565b82525050565b613a4981612b5a565b82525050565b6000608082019050613a646000830187613a31565b613a716020830186612d23565b613a7e6040830185613a40565b613a8b6060830184613a40565b95945050505050565b7f496e73756666696369656e74206665652e000000000000000000000000000000600082015250565b6000613aca601183612e5b565b9150613ad582613a94565b602082019050919050565b60006020820190508181036000830152613af981613abd565b9050919050565b7f6163636f756e743a206e6f742066726f6d20456e747279506f696e7400000000600082015250565b6000613b36601c83612e5b565b9150613b4182613b00565b602082019050919050565b60006020820190508181036000830152613b6581613b29565b9050919050565b600081905092915050565b50565b6000613b87600083613b6c565b9150613b9282613b77565b600082019050919050565b6000613ba882613b7a565b915081905091905056fea2646970667358221220ef32a1f417d0a1f5141c2c88d15cd21209dff8d515de86ce368cc0b8180db2d264736f6c63430008120033",
  "linkReferences": {
    "contracts/ECCUtils.sol": {
      "ECCUtils": [
        {
          "length": 20,
          "start": 5857
        },
        {
          "length": 20,
          "start": 6993
        }
      ]
    }
  },
  "deployedLinkReferences": {
    "contracts/ECCUtils.sol": {
      "ECCUtils": [
        {
          "length": 20,
          "start": 5149
        },
        {
          "length": 20,
          "start": 6285
        }
      ]
    }
  }
}