{
  "_format": "hh-sol-artifact-1",
  "contractName": "ECCUtils",
  "sourceName": "contracts/ECCUtils.sol",
  "abi": [
    {
      "inputs": [
        {
          "internalType": "uint256",
          "name": "x1",
          "type": "uint256"
        },
        {
          "internalType": "uint256",
          "name": "y1",
          "type": "uint256"
        },
        {
          "internalType": "uint256",
          "name": "z1",
          "type": "uint256"
        },
        {
          "internalType": "uint256",
          "name": "x2",
          "type": "uint256"
        },
        {
          "internalType": "uint256",
          "name": "y2",
          "type": "uint256"
        },
        {
          "internalType": "uint256",
          "name": "z2",
          "type": "uint256"
        }
      ],
      "name": "_ecAdd",
      "outputs": [
        {
          "internalType": "uint256",
          "name": "x3",
          "type": "uint256"
        },
        {
          "internalType": "uint256",
          "name": "y3",
          "type": "uint256"
        },
        {
          "internalType": "uint256",
          "name": "z3",
          "type": "uint256"
        }
      ],
      "stateMutability": "pure",
      "type": "function"
    },
    {
      "inputs": [
        {
          "internalType": "uint256",
          "name": "x1",
          "type": "uint256"
        },
        {
          "internalType": "uint256",
          "name": "y1",
          "type": "uint256"
        },
        {
          "internalType": "uint256",
          "name": "z1",
          "type": "uint256"
        }
      ],
      "name": "_ecDouble",
      "outputs": [
        {
          "internalType": "uint256",
          "name": "x3",
          "type": "uint256"
        },
        {
          "internalType": "uint256",
          "name": "y3",
          "type": "uint256"
        },
        {
          "internalType": "uint256",
          "name": "z3",
          "type": "uint256"
        }
      ],
      "stateMutability": "pure",
      "type": "function"
    },
    {
      "inputs": [
        {
          "internalType": "uint256",
          "name": "d",
          "type": "uint256"
        },
        {
          "internalType": "uint256",
          "name": "x1",
          "type": "uint256"
        },
        {
          "internalType": "uint256",
          "name": "y1",
          "type": "uint256"
        },
        {
          "internalType": "uint256",
          "name": "z1",
          "type": "uint256"
        }
      ],
      "name": "_ecMul",
      "outputs": [
        {
          "internalType": "uint256",
          "name": "x3",
          "type": "uint256"
        },
        {
          "internalType": "uint256",
          "name": "y3",
          "type": "uint256"
        },
        {
          "internalType": "uint256",
          "name": "z3",
          "type": "uint256"
        }
      ],
      "stateMutability": "pure",
      "type": "function"
    },
    {
      "inputs": [
        {
          "internalType": "uint256",
          "name": "val",
          "type": "uint256"
        }
      ],
      "name": "_inverse",
      "outputs": [
        {
          "internalType": "uint256",
          "name": "invVal",
          "type": "uint256"
        }
      ],
      "stateMutability": "pure",
      "type": "function"
    },
    {
      "inputs": [
        {
          "internalType": "uint256",
          "name": "x1",
          "type": "uint256"
        },
        {
          "internalType": "uint256",
          "name": "z1",
          "type": "uint256"
        },
        {
          "internalType": "uint256",
          "name": "x2",
          "type": "uint256"
        },
        {
          "internalType": "uint256",
          "name": "z2",
          "type": "uint256"
        }
      ],
      "name": "_jAdd",
      "outputs": [
        {
          "internalType": "uint256",
          "name": "x3",
          "type": "uint256"
        },
        {
          "internalType": "uint256",
          "name": "z3",
          "type": "uint256"
        }
      ],
      "stateMutability": "pure",
      "type": "function"
    },
    {
      "inputs": [
        {
          "internalType": "uint256",
          "name": "x1",
          "type": "uint256"
        },
        {
          "internalType": "uint256",
          "name": "z1",
          "type": "uint256"
        },
        {
          "internalType": "uint256",
          "name": "x2",
          "type": "uint256"
        },
        {
          "internalType": "uint256",
          "name": "z2",
          "type": "uint256"
        }
      ],
      "name": "_jDiv",
      "outputs": [
        {
          "internalType": "uint256",
          "name": "x3",
          "type": "uint256"
        },
        {
          "internalType": "uint256",
          "name": "z3",
          "type": "uint256"
        }
      ],
      "stateMutability": "pure",
      "type": "function"
    },
    {
      "inputs": [
        {
          "internalType": "uint256",
          "name": "x1",
          "type": "uint256"
        },
        {
          "internalType": "uint256",
          "name": "z1",
          "type": "uint256"
        },
        {
          "internalType": "uint256",
          "name": "x2",
          "type": "uint256"
        },
        {
          "internalType": "uint256",
          "name": "z2",
          "type": "uint256"
        }
      ],
      "name": "_jMul",
      "outputs": [
        {
          "internalType": "uint256",
          "name": "x3",
          "type": "uint256"
        },
        {
          "internalType": "uint256",
          "name": "z3",
          "type": "uint256"
        }
      ],
      "stateMutability": "pure",
      "type": "function"
    },
    {
      "inputs": [
        {
          "internalType": "uint256",
          "name": "x1",
          "type": "uint256"
        },
        {
          "internalType": "uint256",
          "name": "z1",
          "type": "uint256"
        },
        {
          "internalType": "uint256",
          "name": "x2",
          "type": "uint256"
        },
        {
          "internalType": "uint256",
          "name": "z2",
          "type": "uint256"
        }
      ],
      "name": "_jSub",
      "outputs": [
        {
          "internalType": "uint256",
          "name": "x3",
          "type": "uint256"
        },
        {
          "internalType": "uint256",
          "name": "z3",
          "type": "uint256"
        }
      ],
      "stateMutability": "pure",
      "type": "function"
    },
    {
      "inputs": [],
      "name": "a",
      "outputs": [
        {
          "internalType": "uint256",
          "name": "",
          "type": "uint256"
        }
      ],
      "stateMutability": "view",
      "type": "function"
    },
    {
      "inputs": [],
      "name": "b",
      "outputs": [
        {
          "internalType": "uint256",
          "name": "",
          "type": "uint256"
        }
      ],
      "stateMutability": "view",
      "type": "function"
    },
    {
      "inputs": [
        {
          "internalType": "uint256",
          "name": "privKey",
          "type": "uint256"
        },
        {
          "internalType": "uint256",
          "name": "pubX",
          "type": "uint256"
        },
        {
          "internalType": "uint256",
          "name": "pubY",
          "type": "uint256"
        }
      ],
      "name": "deriveKey",
      "outputs": [
        {
          "internalType": "uint256",
          "name": "qx",
          "type": "uint256"
        },
        {
          "internalType": "uint256",
          "name": "qy",
          "type": "uint256"
        }
      ],
      "stateMutability": "pure",
      "type": "function"
    },
    {
      "inputs": [
        {
          "internalType": "uint256",
          "name": "x1",
          "type": "uint256"
        },
        {
          "internalType": "uint256",
          "name": "y1",
          "type": "uint256"
        },
        {
          "internalType": "uint256",
          "name": "x2",
          "type": "uint256"
        },
        {
          "internalType": "uint256",
          "name": "y2",
          "type": "uint256"
        }
      ],
      "name": "ecadd",
      "outputs": [
        {
          "internalType": "uint256",
          "name": "x3",
          "type": "uint256"
        },
        {
          "internalType": "uint256",
          "name": "y3",
          "type": "uint256"
        }
      ],
      "stateMutability": "pure",
      "type": "function"
    },
    {
      "inputs": [
        {
          "internalType": "uint256",
          "name": "x1",
          "type": "uint256"
        },
        {
          "internalType": "uint256",
          "name": "y1",
          "type": "uint256"
        },
        {
          "internalType": "uint256",
          "name": "scalar",
          "type": "uint256"
        }
      ],
      "name": "ecmul",
      "outputs": [
        {
          "internalType": "uint256",
          "name": "x2",
          "type": "uint256"
        },
        {
          "internalType": "uint256",
          "name": "y2",
          "type": "uint256"
        }
      ],
      "stateMutability": "pure",
      "type": "function"
    },
    {
      "inputs": [
        {
          "internalType": "uint256",
          "name": "x1",
          "type": "uint256"
        },
        {
          "internalType": "uint256",
          "name": "y1",
          "type": "uint256"
        },
        {
          "internalType": "uint256",
          "name": "scalar",
          "type": "uint256"
        },
        {
          "internalType": "uint256",
          "name": "qx",
          "type": "uint256"
        },
        {
          "internalType": "uint256",
          "name": "qy",
          "type": "uint256"
        }
      ],
      "name": "ecmulVerify",
      "outputs": [
        {
          "internalType": "bool",
          "name": "",
          "type": "bool"
        }
      ],
      "stateMutability": "pure",
      "type": "function"
    },
    {
      "inputs": [],
      "name": "gx",
      "outputs": [
        {
          "internalType": "uint256",
          "name": "",
          "type": "uint256"
        }
      ],
      "stateMutability": "view",
      "type": "function"
    },
    {
      "inputs": [],
      "name": "gy",
      "outputs": [
        {
          "internalType": "uint256",
          "name": "",
          "type": "uint256"
        }
      ],
      "stateMutability": "view",
      "type": "function"
    },
    {
      "inputs": [],
      "name": "n",
      "outputs": [
        {
          "internalType": "uint256",
          "name": "",
          "type": "uint256"
        }
      ],
      "stateMutability": "view",
      "type": "function"
    },
    {
      "inputs": [
        {
          "internalType": "uint256",
          "name": "privKey",
          "type": "uint256"
        }
      ],
      "name": "publicKey",
      "outputs": [
        {
          "internalType": "uint256",
          "name": "qx",
          "type": "uint256"
        },
        {
          "internalType": "uint256",
          "name": "qy",
          "type": "uint256"
        }
      ],
      "stateMutability": "pure",
      "type": "function"
    },
    {
      "inputs": [
        {
          "internalType": "uint256",
          "name": "privKey",
          "type": "uint256"
        },
        {
          "internalType": "uint256",
          "name": "x",
          "type": "uint256"
        },
        {
          "internalType": "uint256",
          "name": "y",
          "type": "uint256"
        }
      ],
      "name": "publicKeyVerify",
      "outputs": [
        {
          "internalType": "bool",
          "name": "",
          "type": "bool"
        }
      ],
      "stateMutability": "pure",
      "type": "function"
    }
  ],
  "bytecode": "0x611503610053600b82828239805160001a607314610046577f4e487b7100000000000000000000000000000000000000000000000000000000600052600060045260246000fd5b30600052607381538281f3fe730000000000000000000000000000000000000000301460806040526004361061012b5760003560e01c80635f972df8116100b7578063913f424c1161007b578063913f424c1461037c578063bb8c256a146103ae578063db318833146103df578063e241c1d914610411578063f47289e1146104425761012b565b80635f972df81461028957806366ce10b7146102ba5780638081a1e7146102ea5780638940aebe1461031b5780638cecf66e1461034c5761012b565b80631ecfe64d116100fe5780631ecfe64d146101cd5780632d58c9a2146101fe5780632e52d6061461021c5780634df7e3d01461023a5780635b764811146102585761012b565b80630138e31b14610130578063022079d91461016157806306c91ce3146101915780630dbe671f146101af575b600080fd5b61014a60048036038101906101459190610fd9565b610474565b60405161015892919061104f565b60405180910390f35b61017b60048036038101906101769190611078565b61054e565b604051610188919061110e565b60405180910390f35b61019961067e565b6040516101a69190611129565b60405180910390f35b6101b76106a2565b6040516101c49190611129565b60405180910390f35b6101e760048036038101906101e29190610fd9565b6106a7565b6040516101f592919061104f565b60405180910390f35b6102066107ac565b6040516102139190611129565b60405180910390f35b6102246107d0565b6040516102319190611129565b60405180910390f35b6102426107f4565b60405161024f9190611129565b60405180910390f35b610272600480360381019061026d9190610fd9565b6107f9565b60405161028092919061104f565b60405180910390f35b6102a3600480360381019061029e9190610fd9565b610871565b6040516102b192919061104f565b60405180910390f35b6102d460048036038101906102cf9190611144565b6108e9565b6040516102e1919061110e565b60405180910390f35b61030460048036038101906102ff9190611144565b610941565b60405161031292919061104f565b60405180910390f35b61033560048036038101906103309190611197565b6109db565b60405161034392919061104f565b60405180910390f35b61036660048036038101906103619190611197565b610a32565b6040516103739190611129565b60405180910390f35b61039660048036038101906103919190610fd9565b610b4b565b6040516103a5939291906111c4565b60405180910390f35b6103c860048036038101906103c39190610fd9565b610c06565b6040516103d692919061104f565b60405180910390f35b6103f960048036038101906103f491906111fb565b610ca4565b604051610408939291906111c4565b60405180910390f35b61042b60048036038101906104269190611144565b610edc565b60405161043992919061104f565b60405180910390f35b61045c60048036038101906104579190611144565b610f76565b60405161046b939291906111c4565b60405180910390f35b6000807ffffffffffffffffffffffffffffffffffffffffffffffffffffffffefffffc2f806104a6576104a5611288565b5b7ffffffffffffffffffffffffffffffffffffffffffffffffffffffffefffffc2f806104d5576104d4611288565b5b8686097ffffffffffffffffffffffffffffffffffffffffffffffffffffffffefffffc2f8061050757610506611288565b5b888609087ffffffffffffffffffffffffffffffffffffffffffffffffffffffffefffffc2f8061053a57610539611288565b5b848709809250819350505094509492505050565b6000807ffffffffffffffffffffffffffffffffebaaedce6af48a03bbfd25e8cd036414190506000600160008060028a61058891906112b7565b0361059457601b610597565b601c5b8a60001b85806105aa576105a9611288565b5b8c8b0960001b604051600081526020016040526040516105cd9493929190611365565b6020604051602081039080840390855afa1580156105ef573d6000803e3d6000fd5b505050602060405103519050600073ffffffffffffffffffffffffffffffffffffffff86866040516020016106259291906113cb565b6040516020818303038152906040528051906020012060001c1690508173ffffffffffffffffffffffffffffffffffffffff168173ffffffffffffffffffffffffffffffffffffffff1614935050505095945050505050565b7f79be667ef9dcbbac55a06295ce870b07029bfcdb2dce28d959f2815b16f8179881565b600081565b6000807ffffffffffffffffffffffffffffffffffffffffffffffffffffffffefffffc2f806106d9576106d8611288565b5b7ffffffffffffffffffffffffffffffffffffffffffffffffffffffffefffffc2f8061070857610707611288565b5b86867ffffffffffffffffffffffffffffffffffffffffffffffffffffffffefffffc2f6107359190611426565b097ffffffffffffffffffffffffffffffffffffffffffffffffffffffffefffffc2f8061076557610764611288565b5b888609087ffffffffffffffffffffffffffffffffffffffffffffffffffffffffefffffc2f8061079857610797611288565b5b848709809250819350505094509492505050565b7f483ada7726a3c4655da4fbfc0e1108a8fd17b448a68554199c47d08ffb10d4b881565b7ffffffffffffffffffffffffffffffffffffffffffffffffffffffffefffffc2f81565b600781565b6000807ffffffffffffffffffffffffffffffffffffffffffffffffffffffffefffffc2f8061082b5761082a611288565b5b8487097ffffffffffffffffffffffffffffffffffffffffffffffffffffffffefffffc2f8061085d5761085c611288565b5b848709809250819350505094509492505050565b6000807ffffffffffffffffffffffffffffffffffffffffffffffffffffffffefffffc2f806108a3576108a2611288565b5b8387097ffffffffffffffffffffffffffffffffffffffffffffffffffffffffefffffc2f806108d5576108d4611288565b5b858709809250819350505094509492505050565b60006109387f79be667ef9dcbbac55a06295ce870b07029bfcdb2dce28d959f2815b16f817987f483ada7726a3c4655da4fbfc0e1108a8fd17b448a68554199c47d08ffb10d4b886868661054e565b90509392505050565b60008060006109538487876001610b4b565b80935081945082955050505061096881610a32565b90507ffffffffffffffffffffffffffffffffffffffffffffffffffffffffefffffc2f8061099957610998611288565b5b81840992507ffffffffffffffffffffffffffffffffffffffffffffffffffffffffefffffc2f806109cd576109cc611288565b5b818309915050935093915050565b600080610a297f79be667ef9dcbbac55a06295ce870b07029bfcdb2dce28d959f2815b16f817987f483ada7726a3c4655da4fbfc0e1108a8fd17b448a68554199c47d08ffb10d4b885610941565b91509150915091565b6000806000905060006001905060007ffffffffffffffffffffffffffffffffffffffffffffffffffffffffefffffc2f9050600085905060005b60008214610b3e578183610a80919061145a565b9050837ffffffffffffffffffffffffffffffffffffffffffffffffffffffffefffffc2f80610ab257610ab1611288565b5b7ffffffffffffffffffffffffffffffffffffffffffffffffffffffffefffffc2f80610ae157610ae0611288565b5b8684097ffffffffffffffffffffffffffffffffffffffffffffffffffffffffefffffc2f610b0f9190611426565b87088095508196505050818282610b26919061148b565b84610b319190611426565b8093508194505050610a6c565b8495505050505050919050565b60008060008087905060008790506000879050600087905060008060006001905060008e03610b8b57600080600199509950995050505050505050610bfc565b5b60008714610be55760006001881614610bba57610bad838383898989610ca4565b8093508194508295505050505b600287610bc7919061145a565b9650610bd4868686610f76565b809650819750829850505050610b8c565b828282809a50819b50829c50505050505050505050505b9450945094915050565b6000806000610c1b8787600188886001610ca4565b809350819450829550505050610c3081610a32565b90507ffffffffffffffffffffffffffffffffffffffffffffffffffffffffefffffc2f80610c6157610c60611288565b5b81840992507ffffffffffffffffffffffffffffffffffffffffffffffffffffffffefffffc2f80610c9557610c94611288565b5b81830991505094509492505050565b6000806000806000806000808d148015610cbe575060008c145b15610cd55789898996509650965050505050610ed0565b60008a148015610ce55750600089145b15610cfc578c8c8c96509650965050505050610ed0565b898d148015610d0a5750888c145b15610d6a57610d1b8d8c8f8e6107f9565b8094508195505050610d318484600360016107f9565b8094508195505050610d47848460006001610474565b8094508195505050610d5d8c8c600260016107f9565b8092508193505050610d93565b610d7689898e8e6106a7565b8094508195505050610d8a8a898f8e6106a7565b80925081935050505b610d9f84848484610871565b8094508195505050610db3848486866107f9565b8093508198505050610dc787838f8e6106a7565b8093508198505050610ddb87838c8b6106a7565b8093508198505050610def8d8c89856106a7565b8092508197505050610e03868286866107f9565b8092508197505050610e1786828e8e6106a7565b8092508197505050808214610ec7577ffffffffffffffffffffffffffffffffffffffffffffffffffffffffefffffc2f80610e5557610e54611288565b5b81880996507ffffffffffffffffffffffffffffffffffffffffffffffffffffffffefffffc2f80610e8957610e88611288565b5b82870995507ffffffffffffffffffffffffffffffffffffffffffffffffffffffffefffffc2f80610ebd57610ebc611288565b5b8183099450610ecb565b8194505b505050505b96509650969350505050565b6000806000610eee8686866001610b4b565b809350819450829550505050610f0381610a32565b90507ffffffffffffffffffffffffffffffffffffffffffffffffffffffffefffffc2f80610f3457610f33611288565b5b81840992507ffffffffffffffffffffffffffffffffffffffffffffffffffffffffefffffc2f80610f6857610f67611288565b5b818309915050935093915050565b6000806000610f89868686898989610ca4565b80935081945082955050505093509350939050565b600080fd5b6000819050919050565b610fb681610fa3565b8114610fc157600080fd5b50565b600081359050610fd381610fad565b92915050565b60008060008060808587031215610ff357610ff2610f9e565b5b600061100187828801610fc4565b945050602061101287828801610fc4565b935050604061102387828801610fc4565b925050606061103487828801610fc4565b91505092959194509250565b61104981610fa3565b82525050565b60006040820190506110646000830185611040565b6110716020830184611040565b9392505050565b600080600080600060a0868803121561109457611093610f9e565b5b60006110a288828901610fc4565b95505060206110b388828901610fc4565b94505060406110c488828901610fc4565b93505060606110d588828901610fc4565b92505060806110e688828901610fc4565b9150509295509295909350565b60008115159050919050565b611108816110f3565b82525050565b600060208201905061112360008301846110ff565b92915050565b600060208201905061113e6000830184611040565b92915050565b60008060006060848603121561115d5761115c610f9e565b5b600061116b86828701610fc4565b935050602061117c86828701610fc4565b925050604061118d86828701610fc4565b9150509250925092565b6000602082840312156111ad576111ac610f9e565b5b60006111bb84828501610fc4565b91505092915050565b60006060820190506111d96000830186611040565b6111e66020830185611040565b6111f36040830184611040565b949350505050565b60008060008060008060c0878903121561121857611217610f9e565b5b600061122689828a01610fc4565b965050602061123789828a01610fc4565b955050604061124889828a01610fc4565b945050606061125989828a01610fc4565b935050608061126a89828a01610fc4565b92505060a061127b89828a01610fc4565b9150509295509295509295565b7f4e487b7100000000000000000000000000000000000000000000000000000000600052601260045260246000fd5b60006112c282610fa3565b91506112cd83610fa3565b9250826112dd576112dc611288565b5b828206905092915050565b6000819050919050565b6000819050919050565b60008160001b9050919050565b600061132461131f61131a846112e8565b6112fc565b6112f2565b9050919050565b61133481611309565b82525050565b600060ff82169050919050565b6113508161133a565b82525050565b61135f816112f2565b82525050565b600060808201905061137a600083018761132b565b6113876020830186611347565b6113946040830185611356565b6113a16060830184611356565b95945050505050565b6000819050919050565b6113c56113c082610fa3565b6113aa565b82525050565b60006113d782856113b4565b6020820191506113e782846113b4565b6020820191508190509392505050565b7f4e487b7100000000000000000000000000000000000000000000000000000000600052601160045260246000fd5b600061143182610fa3565b915061143c83610fa3565b9250828203905081811115611454576114536113f7565b5b92915050565b600061146582610fa3565b915061147083610fa3565b9250826114805761147f611288565b5b828204905092915050565b600061149682610fa3565b91506114a183610fa3565b92508282026114af81610fa3565b915082820484148315176114c6576114c56113f7565b5b509291505056fea26469706673582212200bf47744cf1d52ca84bdfb53a7d71279d5805409445d78c2f4d4a4b583746eb664736f6c63430008120033",
  "linkReferences": {},
  "deployedLinkReferences": {}
}